{
  "transactions": [
    {
      "hash": "0x66a978e12b9f99d6bcd4233c48b96a14ccdd8cc23707ee9c21cff4993ae86a31",
      "transactionType": "CALL",
      "contractName": null,
      "contractAddress": "0xc8f7a5c2d1ff75721a8ec574b618379b8b74e3e6",
      "function": "redeem(uint256,address,address)",
      "arguments": [
        "512931770748",
        "0x8D38cdf481b15fCe5e38de304825E034f9ebe0E7",
        "0x8D38cdf481b15fCe5e38de304825E034f9ebe0E7"
      ],
      "transaction": {
        "from": "0x8d38cdf481b15fce5e38de304825e034f9ebe0e7",
        "to": "0xc8f7a5c2d1ff75721a8ec574b618379b8b74e3e6",
        "gas": "0x84795",
        "value": "0x0",
        "input": "0xba087652000000000000000000000000000000000000000000000000000000776d1db17c0000000000000000000000008d38cdf481b15fce5e38de304825e034f9ebe0e70000000000000000000000008d38cdf481b15fce5e38de304825e034f9ebe0e7",
        "nonce": "0x15",
        "chainId": "0xa4b1"
      },
      "additionalContracts": [],
      "isFixedGasLimit": false
    }
  ],
  "receipts": [
    {
      "status": "0x1",
      "cumulativeGasUsed": "0xec824",
      "logs": [
        {
          "address": "0xc8f7a5c2d1ff75721a8ec574b618379b8b74e3e6",
          "topics": [
            "0xddf252ad1be2c89b69c2b068fc378daa952ba7f163c4a11628f55a4df523b3ef",
            "0x0000000000000000000000008d38cdf481b15fce5e38de304825e034f9ebe0e7",
            "0x0000000000000000000000000000000000000000000000000000000000000000"
          ],
          "data": "0x000000000000000000000000000000000000000000000000000000776d1db17c",
          "blockHash": "0xc0a4b653679f523eaf9d0ab4f3a763b964c76174f241029741de312283ef2d74",
          "blockNumber": "0xf118120",
          "transactionHash": "0x66a978e12b9f99d6bcd4233c48b96a14ccdd8cc23707ee9c21cff4993ae86a31",
          "transactionIndex": "0x5",
          "logIndex": "0xa",
          "removed": false
        },
        {
          "address": "0xc6962004f452be9203591991d15f6b388e09e8d0",
          "topics": [
            "0x0c396cd989a39f4459b5fa1aed6a9a8dcdbc45908acfd67e028cd568da98982c",
            "0x000000000000000000000000c8f7a5c2d1ff75721a8ec574b618379b8b74e3e6",
            "0xfffffffffffffffffffffffffffffffffffffffffffffffffffffffffffcb24c",
            "0xfffffffffffffffffffffffffffffffffffffffffffffffffffffffffffd3cee"
          ],
          "data": "0x000000000000000000000000000000000000000000000000000000776d1d8a7600000000000000000000000000000000000000000000000000162c4f0f80d7b00000000000000000000000000000000000000000000000000000000000de8b4f",
          "blockHash": "0xc0a4b653679f523eaf9d0ab4f3a763b964c76174f241029741de312283ef2d74",
          "blockNumber": "0xf118120",
          "transactionHash": "0x66a978e12b9f99d6bcd4233c48b96a14ccdd8cc23707ee9c21cff4993ae86a31",
          "transactionIndex": "0x5",
          "logIndex": "0xb",
          "removed": false
        },
        {
          "address": "0x82af49447d8a07e3bd95bd0d56f35241523fbab1",
          "topics": [
            "0xddf252ad1be2c89b69c2b068fc378daa952ba7f163c4a11628f55a4df523b3ef",
            "0x000000000000000000000000c6962004f452be9203591991d15f6b388e09e8d0",
            "0x000000000000000000000000c8f7a5c2d1ff75721a8ec574b618379b8b74e3e6"
          ],
          "data": "0x00000000000000000000000000000000000000000000000000162c4f0fb0e94a",
          "blockHash": "0xc0a4b653679f523eaf9d0ab4f3a763b964c76174f241029741de312283ef2d74",
          "blockNumber": "0xf118120",
          "transactionHash": "0x66a978e12b9f99d6bcd4233c48b96a14ccdd8cc23707ee9c21cff4993ae86a31",
          "transactionIndex": "0x5",
          "logIndex": "0xc",
          "removed": false
        },
        {
          "address": "0xaf88d065e77c8cc2239327c5edb3a432268e5831",
          "topics": [
            "0xddf252ad1be2c89b69c2b068fc378daa952ba7f163c4a11628f55a4df523b3ef",
            "0x000000000000000000000000c6962004f452be9203591991d15f6b388e09e8d0",
            "0x000000000000000000000000c8f7a5c2d1ff75721a8ec574b618379b8b74e3e6"
          ],
          "data": "0x0000000000000000000000000000000000000000000000000000000000de8b51",
          "blockHash": "0xc0a4b653679f523eaf9d0ab4f3a763b964c76174f241029741de312283ef2d74",
          "blockNumber": "0xf118120",
          "transactionHash": "0x66a978e12b9f99d6bcd4233c48b96a14ccdd8cc23707ee9c21cff4993ae86a31",
          "transactionIndex": "0x5",
          "logIndex": "0xd",
          "removed": false
        },
        {
          "address": "0xc6962004f452be9203591991d15f6b388e09e8d0",
          "topics": [
            "0x70935338e69775456a85ddef226c395fb668b63fa0115f5f20610b388e6ca9c0",
            "0x000000000000000000000000c8f7a5c2d1ff75721a8ec574b618379b8b74e3e6",
            "0xfffffffffffffffffffffffffffffffffffffffffffffffffffffffffffcb24c",
            "0xfffffffffffffffffffffffffffffffffffffffffffffffffffffffffffd3cee"
          ],
          "data": "0x000000000000000000000000c8f7a5c2d1ff75721a8ec574b618379b8b74e3e600000000000000000000000000000000000000000000000000162c4f0fb0e94a0000000000000000000000000000000000000000000000000000000000de8b51",
          "blockHash": "0xc0a4b653679f523eaf9d0ab4f3a763b964c76174f241029741de312283ef2d74",
          "blockNumber": "0xf118120",
          "transactionHash": "0x66a978e12b9f99d6bcd4233c48b96a14ccdd8cc23707ee9c21cff4993ae86a31",
          "transactionIndex": "0x5",
          "logIndex": "0xe",
          "removed": false
        },
        {
          "address": "0x82af49447d8a07e3bd95bd0d56f35241523fbab1",
          "topics": [
            "0xddf252ad1be2c89b69c2b068fc378daa952ba7f163c4a11628f55a4df523b3ef",
            "0x000000000000000000000000c8f7a5c2d1ff75721a8ec574b618379b8b74e3e6",
            "0x0000000000000000000000008d38cdf481b15fce5e38de304825e034f9ebe0e7"
          ],
          "data": "0x00000000000000000000000000000000000000000000000000160fed62d006d7",
          "blockHash": "0xc0a4b653679f523eaf9d0ab4f3a763b964c76174f241029741de312283ef2d74",
          "blockNumber": "0xf118120",
          "transactionHash": "0x66a978e12b9f99d6bcd4233c48b96a14ccdd8cc23707ee9c21cff4993ae86a31",
          "transactionIndex": "0x5",
          "logIndex": "0xf",
          "removed": false
        },
        {
          "address": "0xaf88d065e77c8cc2239327c5edb3a432268e5831",
          "topics": [
            "0xddf252ad1be2c89b69c2b068fc378daa952ba7f163c4a11628f55a4df523b3ef",
            "0x000000000000000000000000c8f7a5c2d1ff75721a8ec574b618379b8b74e3e6",
            "0x0000000000000000000000008d38cdf481b15fce5e38de304825e034f9ebe0e7"
          ],
          "data": "0x0000000000000000000000000000000000000000000000000000000000dd6e75",
          "blockHash": "0xc0a4b653679f523eaf9d0ab4f3a763b964c76174f241029741de312283ef2d74",
          "blockNumber": "0xf118120",
          "transactionHash": "0x66a978e12b9f99d6bcd4233c48b96a14ccdd8cc23707ee9c21cff4993ae86a31",
          "transactionIndex": "0x5",
          "logIndex": "0x10",
          "removed": false
        },
        {
          "address": "0xc8f7a5c2d1ff75721a8ec574b618379b8b74e3e6",
          "topics": [
            "0xfbde797d201c681b91056529119e0b02407c7bb96a4a2c75c01fc9667232c8db",
            "0x0000000000000000000000008d38cdf481b15fce5e38de304825e034f9ebe0e7",
            "0x0000000000000000000000008d38cdf481b15fce5e38de304825e034f9ebe0e7",
            "0x0000000000000000000000008d38cdf481b15fce5e38de304825e034f9ebe0e7"
          ],
          "data": "0x000000000000000000000000000000000000000000000000000000776d1d8a76000000000000000000000000000000000000000000000000000000776d1db17c",
          "blockHash": "0xc0a4b653679f523eaf9d0ab4f3a763b964c76174f241029741de312283ef2d74",
          "blockNumber": "0xf118120",
          "transactionHash": "0x66a978e12b9f99d6bcd4233c48b96a14ccdd8cc23707ee9c21cff4993ae86a31",
          "transactionIndex": "0x5",
          "logIndex": "0x11",
          "removed": false
        }
      ],
      "logsBloom": "0x00000000000000400012000002000000000000000000000008000000000000000400000000000000000002200000000000004001000020000200000000000000000000010000000000000009000000000040000008000000000000000000000001000000020000000000000400000800000000000004000000000010000000000000000000000000000000400000000000008000002000000000000000210000000000000000000040000000000000020000800000000000000000000000000000002002000400000000000000000000000000000000000000000000000020000000080800040000000000000000200000002000000000000000000000800000",
      "type": "0x2",
      "transactionHash": "0x66a978e12b9f99d6bcd4233c48b96a14ccdd8cc23707ee9c21cff4993ae86a31",
      "transactionIndex": "0x5",
      "blockHash": "0xc0a4b653679f523eaf9d0ab4f3a763b964c76174f241029741de312283ef2d74",
      "blockNumber": "0xf118120",
      "gasUsed": "0x558e8",
      "effectiveGasPrice": "0x989680",
      "from": "0x8d38cdf481b15fce5e38de304825e034f9ebe0e7",
      "to": "0xc8f7a5c2d1ff75721a8ec574b618379b8b74e3e6",
      "contractAddress": null,
      "gasUsedForL1": "0xb675",
      "l1BlockNumber": "0x13c675b"
    }
  ],
  "libraries": [],
  "pending": [],
  "returns": {},
  "timestamp": 1726159881,
  "chain": 42161,
  "commit": "9735aa6"
}