{
  "transactions": [
    {
      "hash": "0x5c19a91dd6f51d30eaf0171afb9aa406ec3439cb4cf1fa6ed98e0871a1ef660c",
      "transactionType": "CALL",
      "contractName": null,
      "contractAddress": "0x6f550294c28d15878a0f30e68dbb4ab92bdcf4ec",
      "function": "redeem(uint256,address,address)",
      "arguments": [
        "36351073286651",
        "0x8D38cdf481b15fCe5e38de304825E034f9ebe0E7",
        "0x8D38cdf481b15fCe5e38de304825E034f9ebe0E7"
      ],
      "transaction": {
        "from": "0x8d38cdf481b15fce5e38de304825e034f9ebe0e7",
        "to": "0x6f550294c28d15878a0f30e68dbb4ab92bdcf4ec",
        "gas": "0x759cd",
        "value": "0x0",
        "input": "0xba0876520000000000000000000000000000000000000000000000000000210fa4cf79fb0000000000000000000000008d38cdf481b15fce5e38de304825e034f9ebe0e70000000000000000000000008d38cdf481b15fce5e38de304825e034f9ebe0e7",
        "nonce": "0x23",
        "chainId": "0xa4b1"
      },
      "additionalContracts": [],
      "isFixedGasLimit": false
    }
  ],
  "receipts": [
    {
      "status": "0x1",
      "cumulativeGasUsed": "0x5083c",
      "logs": [
        {
          "address": "0x6f550294c28d15878a0f30e68dbb4ab92bdcf4ec",
          "topics": [
            "0xddf252ad1be2c89b69c2b068fc378daa952ba7f163c4a11628f55a4df523b3ef",
            "0x0000000000000000000000008d38cdf481b15fce5e38de304825e034f9ebe0e7",
            "0x0000000000000000000000000000000000000000000000000000000000000000"
          ],
          "data": "0x0000000000000000000000000000000000000000000000000000210fa4cf79fb",
          "blockHash": "0xd2d52863012cef9e8489ddafa2e046f5c66e27f002f1a1be7c44a94246b5beb2",
          "blockNumber": "0xf11b660",
          "transactionHash": "0x5c19a91dd6f51d30eaf0171afb9aa406ec3439cb4cf1fa6ed98e0871a1ef660c",
          "transactionIndex": "0x1",
          "logIndex": "0x0",
          "removed": false
        },
        {
          "address": "0xc6962004f452be9203591991d15f6b388e09e8d0",
          "topics": [
            "0x0c396cd989a39f4459b5fa1aed6a9a8dcdbc45908acfd67e028cd568da98982c",
            "0x0000000000000000000000006f550294c28d15878a0f30e68dbb4ab92bdcf4ec",
            "0xfffffffffffffffffffffffffffffffffffffffffffffffffffffffffffcf630",
            "0xfffffffffffffffffffffffffffffffffffffffffffffffffffffffffffcf950"
          ],
          "data": "0x000000000000000000000000000000000000000000000000000021086fe8072500000000000000000000000000000000000000000000000000340553bcad4f2d00000000000000000000000000000000000000000000000000000000021ad6ed",
          "blockHash": "0xd2d52863012cef9e8489ddafa2e046f5c66e27f002f1a1be7c44a94246b5beb2",
          "blockNumber": "0xf11b660",
          "transactionHash": "0x5c19a91dd6f51d30eaf0171afb9aa406ec3439cb4cf1fa6ed98e0871a1ef660c",
          "transactionIndex": "0x1",
          "logIndex": "0x1",
          "removed": false
        },
        {
          "address": "0x82af49447d8a07e3bd95bd0d56f35241523fbab1",
          "topics": [
            "0xddf252ad1be2c89b69c2b068fc378daa952ba7f163c4a11628f55a4df523b3ef",
            "0x000000000000000000000000c6962004f452be9203591991d15f6b388e09e8d0",
            "0x0000000000000000000000006f550294c28d15878a0f30e68dbb4ab92bdcf4ec"
          ],
          "data": "0x0000000000000000000000000000000000000000000000000034057615f7347a",
          "blockHash": "0xd2d52863012cef9e8489ddafa2e046f5c66e27f002f1a1be7c44a94246b5beb2",
          "blockNumber": "0xf11b660",
          "transactionHash": "0x5c19a91dd6f51d30eaf0171afb9aa406ec3439cb4cf1fa6ed98e0871a1ef660c",
          "transactionIndex": "0x1",
          "logIndex": "0x2",
          "removed": false
        },
        {
          "address": "0xaf88d065e77c8cc2239327c5edb3a432268e5831",
          "topics": [
            "0xddf252ad1be2c89b69c2b068fc378daa952ba7f163c4a11628f55a4df523b3ef",
            "0x000000000000000000000000c6962004f452be9203591991d15f6b388e09e8d0",
            "0x0000000000000000000000006f550294c28d15878a0f30e68dbb4ab92bdcf4ec"
          ],
          "data": "0x00000000000000000000000000000000000000000000000000000000021ad91b",
          "blockHash": "0xd2d52863012cef9e8489ddafa2e046f5c66e27f002f1a1be7c44a94246b5beb2",
          "blockNumber": "0xf11b660",
          "transactionHash": "0x5c19a91dd6f51d30eaf0171afb9aa406ec3439cb4cf1fa6ed98e0871a1ef660c",
          "transactionIndex": "0x1",
          "logIndex": "0x3",
          "removed": false
        },
        {
          "address": "0xc6962004f452be9203591991d15f6b388e09e8d0",
          "topics": [
            "0x70935338e69775456a85ddef226c395fb668b63fa0115f5f20610b388e6ca9c0",
            "0x0000000000000000000000006f550294c28d15878a0f30e68dbb4ab92bdcf4ec",
            "0xfffffffffffffffffffffffffffffffffffffffffffffffffffffffffffcf630",
            "0xfffffffffffffffffffffffffffffffffffffffffffffffffffffffffffcf950"
          ],
          "data": "0x0000000000000000000000006f550294c28d15878a0f30e68dbb4ab92bdcf4ec0000000000000000000000000000000000000000000000000034057615f7347a00000000000000000000000000000000000000000000000000000000021ad91b",
          "blockHash": "0xd2d52863012cef9e8489ddafa2e046f5c66e27f002f1a1be7c44a94246b5beb2",
          "blockNumber": "0xf11b660",
          "transactionHash": "0x5c19a91dd6f51d30eaf0171afb9aa406ec3439cb4cf1fa6ed98e0871a1ef660c",
          "transactionIndex": "0x1",
          "logIndex": "0x4",
          "removed": false
        },
        {
          "address": "0x82af49447d8a07e3bd95bd0d56f35241523fbab1",
          "topics": [
            "0xddf252ad1be2c89b69c2b068fc378daa952ba7f163c4a11628f55a4df523b3ef",
            "0x0000000000000000000000006f550294c28d15878a0f30e68dbb4ab92bdcf4ec",
            "0x0000000000000000000000008d38cdf481b15fce5e38de304825e034f9ebe0e7"
          ],
          "data": "0x0000000000000000000000000000000000000000000000000033c2dfbc417d2c",
          "blockHash": "0xd2d52863012cef9e8489ddafa2e046f5c66e27f002f1a1be7c44a94246b5beb2",
          "blockNumber": "0xf11b660",
          "transactionHash": "0x5c19a91dd6f51d30eaf0171afb9aa406ec3439cb4cf1fa6ed98e0871a1ef660c",
          "transactionIndex": "0x1",
          "logIndex": "0x5",
          "removed": false
        },
        {
          "address": "0xaf88d065e77c8cc2239327c5edb3a432268e5831",
          "topics": [
            "0xddf252ad1be2c89b69c2b068fc378daa952ba7f163c4a11628f55a4df523b3ef",
            "0x0000000000000000000000006f550294c28d15878a0f30e68dbb4ab92bdcf4ec",
            "0x0000000000000000000000008d38cdf481b15fce5e38de304825e034f9ebe0e7"
          ],
          "data": "0x0000000000000000000000000000000000000000000000000000000002182761",
          "blockHash": "0xd2d52863012cef9e8489ddafa2e046f5c66e27f002f1a1be7c44a94246b5beb2",
          "blockNumber": "0xf11b660",
          "transactionHash": "0x5c19a91dd6f51d30eaf0171afb9aa406ec3439cb4cf1fa6ed98e0871a1ef660c",
          "transactionIndex": "0x1",
          "logIndex": "0x6",
          "removed": false
        },
        {
          "address": "0x6f550294c28d15878a0f30e68dbb4ab92bdcf4ec",
          "topics": [
            "0xfbde797d201c681b91056529119e0b02407c7bb96a4a2c75c01fc9667232c8db",
            "0x0000000000000000000000008d38cdf481b15fce5e38de304825e034f9ebe0e7",
            "0x0000000000000000000000008d38cdf481b15fce5e38de304825e034f9ebe0e7",
            "0x0000000000000000000000008d38cdf481b15fce5e38de304825e034f9ebe0e7"
          ],
          "data": "0x000000000000000000000000000000000000000000000000000021086fe807250000000000000000000000000000000000000000000000000000210fa4cf79fb",
          "blockHash": "0xd2d52863012cef9e8489ddafa2e046f5c66e27f002f1a1be7c44a94246b5beb2",
          "blockNumber": "0xf11b660",
          "transactionHash": "0x5c19a91dd6f51d30eaf0171afb9aa406ec3439cb4cf1fa6ed98e0871a1ef660c",
          "transactionIndex": "0x1",
          "logIndex": "0x7",
          "removed": false
        }
      ],
      "logsBloom": "0x000000000000004200100000020000000000000000000200000000000000000000002000008000000000002000004000000040010000200002000000000000000000000100000000080000890000000000400000080000000000000000000000000000000200000000000004000008000000000000040000000000100000000000000000010000000000004000000000000080000020000000000000000000004000040000000000000000000000000a0000000000000000000000000000000000002002000000000000000000000000000000000000000000000000000022000000080800040000000000000000200000000000000000000000000000000000",
      "type": "0x2",
      "transactionHash": "0x5c19a91dd6f51d30eaf0171afb9aa406ec3439cb4cf1fa6ed98e0871a1ef660c",
      "transactionIndex": "0x1",
      "blockHash": "0xd2d52863012cef9e8489ddafa2e046f5c66e27f002f1a1be7c44a94246b5beb2",
      "blockNumber": "0xf11b660",
      "gasUsed": "0x5083c",
      "effectiveGasPrice": "0x989680",
      "from": "0x8d38cdf481b15fce5e38de304825e034f9ebe0e7",
      "to": "0x6f550294c28d15878a0f30e68dbb4ab92bdcf4ec",
      "contractAddress": null,
      "gasUsedForL1": "0xef2d",
      "l1BlockNumber": "0x13c6879"
    }
  ],
  "libraries": [],
  "pending": [],
  "returns": {},
  "timestamp": 1726163300,
  "chain": 42161,
  "commit": "9735aa6"
}