{
  "transactions": [
    {
      "hash": "0x048fefe1c64f6eced876d8df664cf934dc4e5f864bfb12c84bf2c72793cd600f",
      "transactionType": "CALL",
      "contractName": null,
      "contractAddress": "0x56a3496ac7c361ef0f7ecaa016dc842c146208f1",
      "function": "redeem(uint256,address,address)",
      "arguments": [
        "40630728211359",
        "0x8D38cdf481b15fCe5e38de304825E034f9ebe0E7",
        "0x8D38cdf481b15fCe5e38de304825E034f9ebe0E7"
      ],
      "transaction": {
        "from": "0x8d38cdf481b15fce5e38de304825e034f9ebe0e7",
        "to": "0x56a3496ac7c361ef0f7ecaa016dc842c146208f1",
        "gas": "0xbd69c",
        "value": "0x0",
        "input": "0xba087652000000000000000000000000000000000000000000000000000024f4141f3b9f0000000000000000000000008d38cdf481b15fce5e38de304825e034f9ebe0e70000000000000000000000008d38cdf481b15fce5e38de304825e034f9ebe0e7",
        "nonce": "0x38",
        "chainId": "0xa4b1"
      },
      "additionalContracts": [],
      "isFixedGasLimit": false
    }
  ],
  "receipts": [
    {
      "status": "0x1",
      "cumulativeGasUsed": "0x133c60",
      "logs": [
        {
          "address": "0x56a3496ac7c361ef0f7ecaa016dc842c146208f1",
          "topics": [
            "0xddf252ad1be2c89b69c2b068fc378daa952ba7f163c4a11628f55a4df523b3ef",
            "0x0000000000000000000000008d38cdf481b15fce5e38de304825e034f9ebe0e7",
            "0x0000000000000000000000000000000000000000000000000000000000000000"
          ],
          "data": "0x000000000000000000000000000000000000000000000000000024f4141f3b9f",
          "blockHash": "0x52576b1bf939a1db967ef1d7b32e9be28489276f5d684a7f98375a6fd2d571e3",
          "blockNumber": "0xf1202db",
          "transactionHash": "0x048fefe1c64f6eced876d8df664cf934dc4e5f864bfb12c84bf2c72793cd600f",
          "transactionIndex": "0x4",
          "logIndex": "0xa",
          "removed": false
        },
        {
          "address": "0xc6962004f452be9203591991d15f6b388e09e8d0",
          "topics": [
            "0x0c396cd989a39f4459b5fa1aed6a9a8dcdbc45908acfd67e028cd568da98982c",
            "0x00000000000000000000000056a3496ac7c361ef0f7ecaa016dc842c146208f1",
            "0xfffffffffffffffffffffffffffffffffffffffffffffffffffffffffffcf70c",
            "0xfffffffffffffffffffffffffffffffffffffffffffffffffffffffffffcf89c"
          ],
          "data": "0x000000000000000000000000000000000000000000000000000024f413896638000000000000000000000000000000000000000000000000001b0b284456cf3f000000000000000000000000000000000000000000000000000000000145205e",
          "blockHash": "0x52576b1bf939a1db967ef1d7b32e9be28489276f5d684a7f98375a6fd2d571e3",
          "blockNumber": "0xf1202db",
          "transactionHash": "0x048fefe1c64f6eced876d8df664cf934dc4e5f864bfb12c84bf2c72793cd600f",
          "transactionIndex": "0x4",
          "logIndex": "0xb",
          "removed": false
        },
        {
          "address": "0x82af49447d8a07e3bd95bd0d56f35241523fbab1",
          "topics": [
            "0xddf252ad1be2c89b69c2b068fc378daa952ba7f163c4a11628f55a4df523b3ef",
            "0x000000000000000000000000c6962004f452be9203591991d15f6b388e09e8d0",
            "0x00000000000000000000000056a3496ac7c361ef0f7ecaa016dc842c146208f1"
          ],
          "data": "0x000000000000000000000000000000000000000000000000001b0b5372f00aad",
          "blockHash": "0x52576b1bf939a1db967ef1d7b32e9be28489276f5d684a7f98375a6fd2d571e3",
          "blockNumber": "0xf1202db",
          "transactionHash": "0x048fefe1c64f6eced876d8df664cf934dc4e5f864bfb12c84bf2c72793cd600f",
          "transactionIndex": "0x4",
          "logIndex": "0xc",
          "removed": false
        },
        {
          "address": "0xaf88d065e77c8cc2239327c5edb3a432268e5831",
          "topics": [
            "0xddf252ad1be2c89b69c2b068fc378daa952ba7f163c4a11628f55a4df523b3ef",
            "0x000000000000000000000000c6962004f452be9203591991d15f6b388e09e8d0",
            "0x00000000000000000000000056a3496ac7c361ef0f7ecaa016dc842c146208f1"
          ],
          "data": "0x00000000000000000000000000000000000000000000000000000000014525be",
          "blockHash": "0x52576b1bf939a1db967ef1d7b32e9be28489276f5d684a7f98375a6fd2d571e3",
          "blockNumber": "0xf1202db",
          "transactionHash": "0x048fefe1c64f6eced876d8df664cf934dc4e5f864bfb12c84bf2c72793cd600f",
          "transactionIndex": "0x4",
          "logIndex": "0xd",
          "removed": false
        },
        {
          "address": "0xc6962004f452be9203591991d15f6b388e09e8d0",
          "topics": [
            "0x70935338e69775456a85ddef226c395fb668b63fa0115f5f20610b388e6ca9c0",
            "0x00000000000000000000000056a3496ac7c361ef0f7ecaa016dc842c146208f1",
            "0xfffffffffffffffffffffffffffffffffffffffffffffffffffffffffffcf70c",
            "0xfffffffffffffffffffffffffffffffffffffffffffffffffffffffffffcf89c"
          ],
          "data": "0x00000000000000000000000056a3496ac7c361ef0f7ecaa016dc842c146208f1000000000000000000000000000000000000000000000000001b0b5372f00aad00000000000000000000000000000000000000000000000000000000014525be",
          "blockHash": "0x52576b1bf939a1db967ef1d7b32e9be28489276f5d684a7f98375a6fd2d571e3",
          "blockNumber": "0xf1202db",
          "transactionHash": "0x048fefe1c64f6eced876d8df664cf934dc4e5f864bfb12c84bf2c72793cd600f",
          "transactionIndex": "0x4",
          "logIndex": "0xe",
          "removed": false
        },
        {
          "address": "0x82af49447d8a07e3bd95bd0d56f35241523fbab1",
          "topics": [
            "0xddf252ad1be2c89b69c2b068fc378daa952ba7f163c4a11628f55a4df523b3ef",
            "0x00000000000000000000000056a3496ac7c361ef0f7ecaa016dc842c146208f1",
            "0x0000000000000000000000008d38cdf481b15fce5e38de304825e034f9ebe0e7"
          ],
          "data": "0x000000000000000000000000000000000000000000000000001ae8b5977ba438",
          "blockHash": "0x52576b1bf939a1db967ef1d7b32e9be28489276f5d684a7f98375a6fd2d571e3",
          "blockNumber": "0xf1202db",
          "transactionHash": "0x048fefe1c64f6eced876d8df664cf934dc4e5f864bfb12c84bf2c72793cd600f",
          "transactionIndex": "0x4",
          "logIndex": "0xf",
          "removed": false
        },
        {
          "address": "0xaf88d065e77c8cc2239327c5edb3a432268e5831",
          "topics": [
            "0xddf252ad1be2c89b69c2b068fc378daa952ba7f163c4a11628f55a4df523b3ef",
            "0x00000000000000000000000056a3496ac7c361ef0f7ecaa016dc842c146208f1",
            "0x0000000000000000000000008d38cdf481b15fce5e38de304825e034f9ebe0e7"
          ],
          "data": "0x000000000000000000000000000000000000000000000000000000000143858d",
          "blockHash": "0x52576b1bf939a1db967ef1d7b32e9be28489276f5d684a7f98375a6fd2d571e3",
          "blockNumber": "0xf1202db",
          "transactionHash": "0x048fefe1c64f6eced876d8df664cf934dc4e5f864bfb12c84bf2c72793cd600f",
          "transactionIndex": "0x4",
          "logIndex": "0x10",
          "removed": false
        },
        {
          "address": "0xaf88d065e77c8cc2239327c5edb3a432268e5831",
          "topics": [
            "0x8c5be1e5ebec7d5bd14f71427d1e84f3dd0314c0f7b2291e5b200ac8c7c3b925",
            "0x00000000000000000000000056a3496ac7c361ef0f7ecaa016dc842c146208f1",
            "0x000000000000000000000000e592427a0aece92de3edee1f18e0157c05861564"
          ],
          "data": "0x000000000000000000000000000000000000000000000000000000000000211f",
          "blockHash": "0x52576b1bf939a1db967ef1d7b32e9be28489276f5d684a7f98375a6fd2d571e3",
          "blockNumber": "0xf1202db",
          "transactionHash": "0x048fefe1c64f6eced876d8df664cf934dc4e5f864bfb12c84bf2c72793cd600f",
          "transactionIndex": "0x4",
          "logIndex": "0x11",
          "removed": false
        },
        {
          "address": "0x82af49447d8a07e3bd95bd0d56f35241523fbab1",
          "topics": [
            "0xddf252ad1be2c89b69c2b068fc378daa952ba7f163c4a11628f55a4df523b3ef",
            "0x000000000000000000000000c6962004f452be9203591991d15f6b388e09e8d0",
            "0x00000000000000000000000056a3496ac7c361ef0f7ecaa016dc842c146208f1"
          ],
          "data": "0x00000000000000000000000000000000000000000000000000000346403189ed",
          "blockHash": "0x52576b1bf939a1db967ef1d7b32e9be28489276f5d684a7f98375a6fd2d571e3",
          "blockNumber": "0xf1202db",
          "transactionHash": "0x048fefe1c64f6eced876d8df664cf934dc4e5f864bfb12c84bf2c72793cd600f",
          "transactionIndex": "0x4",
          "logIndex": "0x12",
          "removed": false
        },
        {
          "address": "0xaf88d065e77c8cc2239327c5edb3a432268e5831",
          "topics": [
            "0xddf252ad1be2c89b69c2b068fc378daa952ba7f163c4a11628f55a4df523b3ef",
            "0x00000000000000000000000056a3496ac7c361ef0f7ecaa016dc842c146208f1",
            "0x000000000000000000000000c6962004f452be9203591991d15f6b388e09e8d0"
          ],
          "data": "0x000000000000000000000000000000000000000000000000000000000000211f",
          "blockHash": "0x52576b1bf939a1db967ef1d7b32e9be28489276f5d684a7f98375a6fd2d571e3",
          "blockNumber": "0xf1202db",
          "transactionHash": "0x048fefe1c64f6eced876d8df664cf934dc4e5f864bfb12c84bf2c72793cd600f",
          "transactionIndex": "0x4",
          "logIndex": "0x13",
          "removed": false
        },
        {
          "address": "0xc6962004f452be9203591991d15f6b388e09e8d0",
          "topics": [
            "0xc42079f94a6350d7e6235f29174924f928cc2ac818eb64fed8004e115fbcca67",
            "0x000000000000000000000000e592427a0aece92de3edee1f18e0157c05861564",
            "0x00000000000000000000000056a3496ac7c361ef0f7ecaa016dc842c146208f1"
          ],
          "data": "0xfffffffffffffffffffffffffffffffffffffffffffffffffffffcb9bfce7613000000000000000000000000000000000000000000000000000000000000211f000000000000000000000000000000000000000000032df2f4a78dee87f152e10000000000000000000000000000000000000000000000003c7edfecb3c92337fffffffffffffffffffffffffffffffffffffffffffffffffffffffffffcf7e5",
          "blockHash": "0x52576b1bf939a1db967ef1d7b32e9be28489276f5d684a7f98375a6fd2d571e3",
          "blockNumber": "0xf1202db",
          "transactionHash": "0x048fefe1c64f6eced876d8df664cf934dc4e5f864bfb12c84bf2c72793cd600f",
          "transactionIndex": "0x4",
          "logIndex": "0x14",
          "removed": false
        },
        {
          "address": "0x82af49447d8a07e3bd95bd0d56f35241523fbab1",
          "topics": [
            "0xddf252ad1be2c89b69c2b068fc378daa952ba7f163c4a11628f55a4df523b3ef",
            "0x00000000000000000000000056a3496ac7c361ef0f7ecaa016dc842c146208f1",
            "0x000000000000000000000000c6962004f452be9203591991d15f6b388e09e8d0"
          ],
          "data": "0x000000000000000000000000000000000000000000000000000025e41ba5f020",
          "blockHash": "0x52576b1bf939a1db967ef1d7b32e9be28489276f5d684a7f98375a6fd2d571e3",
          "blockNumber": "0xf1202db",
          "transactionHash": "0x048fefe1c64f6eced876d8df664cf934dc4e5f864bfb12c84bf2c72793cd600f",
          "transactionIndex": "0x4",
          "logIndex": "0x15",
          "removed": false
        },
        {
          "address": "0xaf88d065e77c8cc2239327c5edb3a432268e5831",
          "topics": [
            "0xddf252ad1be2c89b69c2b068fc378daa952ba7f163c4a11628f55a4df523b3ef",
            "0x00000000000000000000000056a3496ac7c361ef0f7ecaa016dc842c146208f1",
            "0x000000000000000000000000c6962004f452be9203591991d15f6b388e09e8d0"
          ],
          "data": "0x000000000000000000000000000000000000000000000000000000000001752c",
          "blockHash": "0x52576b1bf939a1db967ef1d7b32e9be28489276f5d684a7f98375a6fd2d571e3",
          "blockNumber": "0xf1202db",
          "transactionHash": "0x048fefe1c64f6eced876d8df664cf934dc4e5f864bfb12c84bf2c72793cd600f",
          "transactionIndex": "0x4",
          "logIndex": "0x16",
          "removed": false
        },
        {
          "address": "0xc6962004f452be9203591991d15f6b388e09e8d0",
          "topics": [
            "0x7a53080ba414158be7ec69b987b5fb7d07dee101fe85488f0853ae16239d0bde",
            "0x00000000000000000000000056a3496ac7c361ef0f7ecaa016dc842c146208f1",
            "0xfffffffffffffffffffffffffffffffffffffffffffffffffffffffffffcf720",
            "0xfffffffffffffffffffffffffffffffffffffffffffffffffffffffffffcf8b0"
          ],
          "data": "0x00000000000000000000000056a3496ac7c361ef0f7ecaa016dc842c146208f10000000000000000000000000000000000000000000000000000002eb04912cf000000000000000000000000000000000000000000000000000025e41ba5f020000000000000000000000000000000000000000000000000000000000001752c",
          "blockHash": "0x52576b1bf939a1db967ef1d7b32e9be28489276f5d684a7f98375a6fd2d571e3",
          "blockNumber": "0xf1202db",
          "transactionHash": "0x048fefe1c64f6eced876d8df664cf934dc4e5f864bfb12c84bf2c72793cd600f",
          "transactionIndex": "0x4",
          "logIndex": "0x17",
          "removed": false
        },
        {
          "address": "0x56a3496ac7c361ef0f7ecaa016dc842c146208f1",
          "topics": [
            "0x8f7ac88db5b2733b40d4b71d2053e668da86665f448bb5f0c65e9076c6e57bac"
          ],
          "data": "0xfffffffffffffffffffffffffffffffffffffffffffffffffffffffffffcf720fffffffffffffffffffffffffffffffffffffffffffffffffffffffffffcf8b00000000000000000000000000000000000000000000000000000002eb04912cf000000000000000000000000000000000000000000000000000025e41ba5f020000000000000000000000000000000000000000000000000000000000001752c",
          "blockHash": "0x52576b1bf939a1db967ef1d7b32e9be28489276f5d684a7f98375a6fd2d571e3",
          "blockNumber": "0xf1202db",
          "transactionHash": "0x048fefe1c64f6eced876d8df664cf934dc4e5f864bfb12c84bf2c72793cd600f",
          "transactionIndex": "0x4",
          "logIndex": "0x18",
          "removed": false
        },
        {
          "address": "0x56a3496ac7c361ef0f7ecaa016dc842c146208f1",
          "topics": [
            "0xfbde797d201c681b91056529119e0b02407c7bb96a4a2c75c01fc9667232c8db",
            "0x0000000000000000000000008d38cdf481b15fce5e38de304825e034f9ebe0e7",
            "0x0000000000000000000000008d38cdf481b15fce5e38de304825e034f9ebe0e7",
            "0x0000000000000000000000008d38cdf481b15fce5e38de304825e034f9ebe0e7"
          ],
          "data": "0x000000000000000000000000000000000000000000000000000024f413896638000000000000000000000000000000000000000000000000000024f4141f3b9f",
          "blockHash": "0x52576b1bf939a1db967ef1d7b32e9be28489276f5d684a7f98375a6fd2d571e3",
          "blockNumber": "0xf1202db",
          "transactionHash": "0x048fefe1c64f6eced876d8df664cf934dc4e5f864bfb12c84bf2c72793cd600f",
          "transactionIndex": "0x4",
          "logIndex": "0x19",
          "removed": false
        }
      ],
      "logsBloom": "0x0000000200000040001010000200000000000400000000000004000000820000000000000000000000000020000000000000400100002000020000100820000000000001000000080000008900000000004008000800000000000000100000000000000002000000000010040000080000200000000400000000001000080000000000000800800000800140000000000000800000200000000000000000000002000000000000000000000180000002010000000000000000000000000000000000200a000000000000080000000000000000008000800000000000000020000010080800040000002000000000200000000000000000000000000000000200",
      "type": "0x2",
      "transactionHash": "0x048fefe1c64f6eced876d8df664cf934dc4e5f864bfb12c84bf2c72793cd600f",
      "transactionIndex": "0x4",
      "blockHash": "0x52576b1bf939a1db967ef1d7b32e9be28489276f5d684a7f98375a6fd2d571e3",
      "blockNumber": "0xf1202db",
      "gasUsed": "0x8417c",
      "effectiveGasPrice": "0x989680",
      "from": "0x8d38cdf481b15fce5e38de304825e034f9ebe0e7",
      "to": "0x56a3496ac7c361ef0f7ecaa016dc842c146208f1",
      "contractAddress": null,
      "gasUsedForL1": "0x8bd1",
      "l1BlockNumber": "0x13c6a10"
    }
  ],
  "libraries": [],
  "pending": [],
  "returns": {},
  "timestamp": 1726168221,
  "chain": 42161,
  "commit": "6c5970c"
}