{
  "transactions": [
    {
      "hash": "0xc8119ac9e1d7b0238592438f975870fcf88c7cc24f21bcde4f0a201d273fc2c6",
      "transactionType": "CALL",
      "contractName": null,
      "contractAddress": "0xdc6d4872390e38e7c9577a64eaafd15af724e1ec",
      "function": "redeem(uint256,address,address)",
      "arguments": [
        "6179847233041",
        "0x8D38cdf481b15fCe5e38de304825E034f9ebe0E7",
        "0x8D38cdf481b15fCe5e38de304825E034f9ebe0E7"
      ],
      "transaction": {
        "from": "0x8d38cdf481b15fce5e38de304825e034f9ebe0e7",
        "to": "0xdc6d4872390e38e7c9577a64eaafd15af724e1ec",
        "gas": "0xbf9ab",
        "value": "0x0",
        "input": "0xba0876520000000000000000000000000000000000000000000000000000059edb995e110000000000000000000000008d38cdf481b15fce5e38de304825e034f9ebe0e70000000000000000000000008d38cdf481b15fce5e38de304825e034f9ebe0e7",
        "nonce": "0x37",
        "chainId": "0xa4b1"
      },
      "additionalContracts": [],
      "isFixedGasLimit": false
    }
  ],
  "receipts": [
    {
      "status": "0x1",
      "cumulativeGasUsed": "0xf2fe3",
      "logs": [
        {
          "address": "0xdc6d4872390e38e7c9577a64eaafd15af724e1ec",
          "topics": [
            "0xddf252ad1be2c89b69c2b068fc378daa952ba7f163c4a11628f55a4df523b3ef",
            "0x0000000000000000000000008d38cdf481b15fce5e38de304825e034f9ebe0e7",
            "0x0000000000000000000000000000000000000000000000000000000000000000"
          ],
          "data": "0x0000000000000000000000000000000000000000000000000000059edb995e11",
          "blockHash": "0xe5a5122bcf1c345012179ca56d9c64c75ad518c2fff5554f79a71a50efa7e929",
          "blockNumber": "0xf11fef5",
          "transactionHash": "0xc8119ac9e1d7b0238592438f975870fcf88c7cc24f21bcde4f0a201d273fc2c6",
          "transactionIndex": "0x3",
          "logIndex": "0x8",
          "removed": false
        },
        {
          "address": "0xc6962004f452be9203591991d15f6b388e09e8d0",
          "topics": [
            "0x0c396cd989a39f4459b5fa1aed6a9a8dcdbc45908acfd67e028cd568da98982c",
            "0x000000000000000000000000dc6d4872390e38e7c9577a64eaafd15af724e1ec",
            "0xfffffffffffffffffffffffffffffffffffffffffffffffffffffffffffcf64e",
            "0xfffffffffffffffffffffffffffffffffffffffffffffffffffffffffffcf978"
          ],
          "data": "0x00000000000000000000000000000000000000000000000000000598c52caa1800000000000000000000000000000000000000000000000000096e24a6e641c60000000000000000000000000000000000000000000000000000000000574e13",
          "blockHash": "0xe5a5122bcf1c345012179ca56d9c64c75ad518c2fff5554f79a71a50efa7e929",
          "blockNumber": "0xf11fef5",
          "transactionHash": "0xc8119ac9e1d7b0238592438f975870fcf88c7cc24f21bcde4f0a201d273fc2c6",
          "transactionIndex": "0x3",
          "logIndex": "0x9",
          "removed": false
        },
        {
          "address": "0x82af49447d8a07e3bd95bd0d56f35241523fbab1",
          "topics": [
            "0xddf252ad1be2c89b69c2b068fc378daa952ba7f163c4a11628f55a4df523b3ef",
            "0x000000000000000000000000c6962004f452be9203591991d15f6b388e09e8d0",
            "0x000000000000000000000000dc6d4872390e38e7c9577a64eaafd15af724e1ec"
          ],
          "data": "0x00000000000000000000000000000000000000000000000000096e5a676d2ce7",
          "blockHash": "0xe5a5122bcf1c345012179ca56d9c64c75ad518c2fff5554f79a71a50efa7e929",
          "blockNumber": "0xf11fef5",
          "transactionHash": "0xc8119ac9e1d7b0238592438f975870fcf88c7cc24f21bcde4f0a201d273fc2c6",
          "transactionIndex": "0x3",
          "logIndex": "0xa",
          "removed": false
        },
        {
          "address": "0xaf88d065e77c8cc2239327c5edb3a432268e5831",
          "topics": [
            "0xddf252ad1be2c89b69c2b068fc378daa952ba7f163c4a11628f55a4df523b3ef",
            "0x000000000000000000000000c6962004f452be9203591991d15f6b388e09e8d0",
            "0x000000000000000000000000dc6d4872390e38e7c9577a64eaafd15af724e1ec"
          ],
          "data": "0x0000000000000000000000000000000000000000000000000000000000574fb5",
          "blockHash": "0xe5a5122bcf1c345012179ca56d9c64c75ad518c2fff5554f79a71a50efa7e929",
          "blockNumber": "0xf11fef5",
          "transactionHash": "0xc8119ac9e1d7b0238592438f975870fcf88c7cc24f21bcde4f0a201d273fc2c6",
          "transactionIndex": "0x3",
          "logIndex": "0xb",
          "removed": false
        },
        {
          "address": "0xc6962004f452be9203591991d15f6b388e09e8d0",
          "topics": [
            "0x70935338e69775456a85ddef226c395fb668b63fa0115f5f20610b388e6ca9c0",
            "0x000000000000000000000000dc6d4872390e38e7c9577a64eaafd15af724e1ec",
            "0xfffffffffffffffffffffffffffffffffffffffffffffffffffffffffffcf64e",
            "0xfffffffffffffffffffffffffffffffffffffffffffffffffffffffffffcf978"
          ],
          "data": "0x000000000000000000000000dc6d4872390e38e7c9577a64eaafd15af724e1ec00000000000000000000000000000000000000000000000000096e5a676d2ce70000000000000000000000000000000000000000000000000000000000574fb5",
          "blockHash": "0xe5a5122bcf1c345012179ca56d9c64c75ad518c2fff5554f79a71a50efa7e929",
          "blockNumber": "0xf11fef5",
          "transactionHash": "0xc8119ac9e1d7b0238592438f975870fcf88c7cc24f21bcde4f0a201d273fc2c6",
          "transactionIndex": "0x3",
          "logIndex": "0xc",
          "removed": false
        },
        {
          "address": "0x82af49447d8a07e3bd95bd0d56f35241523fbab1",
          "topics": [
            "0xddf252ad1be2c89b69c2b068fc378daa952ba7f163c4a11628f55a4df523b3ef",
            "0x000000000000000000000000dc6d4872390e38e7c9577a64eaafd15af724e1ec",
            "0x0000000000000000000000008d38cdf481b15fce5e38de304825e034f9ebe0e7"
          ],
          "data": "0x0000000000000000000000000000000000000000000000000009624808307832",
          "blockHash": "0xe5a5122bcf1c345012179ca56d9c64c75ad518c2fff5554f79a71a50efa7e929",
          "blockNumber": "0xf11fef5",
          "transactionHash": "0xc8119ac9e1d7b0238592438f975870fcf88c7cc24f21bcde4f0a201d273fc2c6",
          "transactionIndex": "0x3",
          "logIndex": "0xd",
          "removed": false
        },
        {
          "address": "0xaf88d065e77c8cc2239327c5edb3a432268e5831",
          "topics": [
            "0xddf252ad1be2c89b69c2b068fc378daa952ba7f163c4a11628f55a4df523b3ef",
            "0x000000000000000000000000dc6d4872390e38e7c9577a64eaafd15af724e1ec",
            "0x0000000000000000000000008d38cdf481b15fce5e38de304825e034f9ebe0e7"
          ],
          "data": "0x000000000000000000000000000000000000000000000000000000000056dff2",
          "blockHash": "0xe5a5122bcf1c345012179ca56d9c64c75ad518c2fff5554f79a71a50efa7e929",
          "blockNumber": "0xf11fef5",
          "transactionHash": "0xc8119ac9e1d7b0238592438f975870fcf88c7cc24f21bcde4f0a201d273fc2c6",
          "transactionIndex": "0x3",
          "logIndex": "0xe",
          "removed": false
        },
        {
          "address": "0x82af49447d8a07e3bd95bd0d56f35241523fbab1",
          "topics": [
            "0x8c5be1e5ebec7d5bd14f71427d1e84f3dd0314c0f7b2291e5b200ac8c7c3b925",
            "0x000000000000000000000000dc6d4872390e38e7c9577a64eaafd15af724e1ec",
            "0x000000000000000000000000e592427a0aece92de3edee1f18e0157c05861564"
          ],
          "data": "0x0000000000000000000000000000000000000000000000000000007f417e8c3a",
          "blockHash": "0xe5a5122bcf1c345012179ca56d9c64c75ad518c2fff5554f79a71a50efa7e929",
          "blockNumber": "0xf11fef5",
          "transactionHash": "0xc8119ac9e1d7b0238592438f975870fcf88c7cc24f21bcde4f0a201d273fc2c6",
          "transactionIndex": "0x3",
          "logIndex": "0xf",
          "removed": false
        },
        {
          "address": "0xaf88d065e77c8cc2239327c5edb3a432268e5831",
          "topics": [
            "0xddf252ad1be2c89b69c2b068fc378daa952ba7f163c4a11628f55a4df523b3ef",
            "0x000000000000000000000000c6962004f452be9203591991d15f6b388e09e8d0",
            "0x000000000000000000000000dc6d4872390e38e7c9577a64eaafd15af724e1ec"
          ],
          "data": "0x0000000000000000000000000000000000000000000000000000000000000503",
          "blockHash": "0xe5a5122bcf1c345012179ca56d9c64c75ad518c2fff5554f79a71a50efa7e929",
          "blockNumber": "0xf11fef5",
          "transactionHash": "0xc8119ac9e1d7b0238592438f975870fcf88c7cc24f21bcde4f0a201d273fc2c6",
          "transactionIndex": "0x3",
          "logIndex": "0x10",
          "removed": false
        },
        {
          "address": "0x82af49447d8a07e3bd95bd0d56f35241523fbab1",
          "topics": [
            "0xddf252ad1be2c89b69c2b068fc378daa952ba7f163c4a11628f55a4df523b3ef",
            "0x000000000000000000000000dc6d4872390e38e7c9577a64eaafd15af724e1ec",
            "0x000000000000000000000000c6962004f452be9203591991d15f6b388e09e8d0"
          ],
          "data": "0x0000000000000000000000000000000000000000000000000000007f417e8c3a",
          "blockHash": "0xe5a5122bcf1c345012179ca56d9c64c75ad518c2fff5554f79a71a50efa7e929",
          "blockNumber": "0xf11fef5",
          "transactionHash": "0xc8119ac9e1d7b0238592438f975870fcf88c7cc24f21bcde4f0a201d273fc2c6",
          "transactionIndex": "0x3",
          "logIndex": "0x11",
          "removed": false
        },
        {
          "address": "0x82af49447d8a07e3bd95bd0d56f35241523fbab1",
          "topics": [
            "0x8c5be1e5ebec7d5bd14f71427d1e84f3dd0314c0f7b2291e5b200ac8c7c3b925",
            "0x000000000000000000000000dc6d4872390e38e7c9577a64eaafd15af724e1ec",
            "0x000000000000000000000000e592427a0aece92de3edee1f18e0157c05861564"
          ],
          "data": "0x0000000000000000000000000000000000000000000000000000000000000000",
          "blockHash": "0xe5a5122bcf1c345012179ca56d9c64c75ad518c2fff5554f79a71a50efa7e929",
          "blockNumber": "0xf11fef5",
          "transactionHash": "0xc8119ac9e1d7b0238592438f975870fcf88c7cc24f21bcde4f0a201d273fc2c6",
          "transactionIndex": "0x3",
          "logIndex": "0x12",
          "removed": false
        },
        {
          "address": "0xc6962004f452be9203591991d15f6b388e09e8d0",
          "topics": [
            "0xc42079f94a6350d7e6235f29174924f928cc2ac818eb64fed8004e115fbcca67",
            "0x000000000000000000000000e592427a0aece92de3edee1f18e0157c05861564",
            "0x000000000000000000000000dc6d4872390e38e7c9577a64eaafd15af724e1ec"
          ],
          "data": "0x0000000000000000000000000000000000000000000000000000007f417e8c3afffffffffffffffffffffffffffffffffffffffffffffffffffffffffffffafd000000000000000000000000000000000000000000032d233c4482d6e182db9600000000000000000000000000000000000000000000000043fa72b0dd86e49efffffffffffffffffffffffffffffffffffffffffffffffffffffffffffcf7d1",
          "blockHash": "0xe5a5122bcf1c345012179ca56d9c64c75ad518c2fff5554f79a71a50efa7e929",
          "blockNumber": "0xf11fef5",
          "transactionHash": "0xc8119ac9e1d7b0238592438f975870fcf88c7cc24f21bcde4f0a201d273fc2c6",
          "transactionIndex": "0x3",
          "logIndex": "0x13",
          "removed": false
        },
        {
          "address": "0x82af49447d8a07e3bd95bd0d56f35241523fbab1",
          "topics": [
            "0xddf252ad1be2c89b69c2b068fc378daa952ba7f163c4a11628f55a4df523b3ef",
            "0x000000000000000000000000dc6d4872390e38e7c9577a64eaafd15af724e1ec",
            "0x000000000000000000000000c6962004f452be9203591991d15f6b388e09e8d0"
          ],
          "data": "0x00000000000000000000000000000000000000000000000000000b931dbe27f5",
          "blockHash": "0xe5a5122bcf1c345012179ca56d9c64c75ad518c2fff5554f79a71a50efa7e929",
          "blockNumber": "0xf11fef5",
          "transactionHash": "0xc8119ac9e1d7b0238592438f975870fcf88c7cc24f21bcde4f0a201d273fc2c6",
          "transactionIndex": "0x3",
          "logIndex": "0x14",
          "removed": false
        },
        {
          "address": "0xaf88d065e77c8cc2239327c5edb3a432268e5831",
          "topics": [
            "0xddf252ad1be2c89b69c2b068fc378daa952ba7f163c4a11628f55a4df523b3ef",
            "0x000000000000000000000000dc6d4872390e38e7c9577a64eaafd15af724e1ec",
            "0x000000000000000000000000c6962004f452be9203591991d15f6b388e09e8d0"
          ],
          "data": "0x000000000000000000000000000000000000000000000000000000000000734d",
          "blockHash": "0xe5a5122bcf1c345012179ca56d9c64c75ad518c2fff5554f79a71a50efa7e929",
          "blockNumber": "0xf11fef5",
          "transactionHash": "0xc8119ac9e1d7b0238592438f975870fcf88c7cc24f21bcde4f0a201d273fc2c6",
          "transactionIndex": "0x3",
          "logIndex": "0x15",
          "removed": false
        },
        {
          "address": "0xc6962004f452be9203591991d15f6b388e09e8d0",
          "topics": [
            "0x7a53080ba414158be7ec69b987b5fb7d07dee101fe85488f0853ae16239d0bde",
            "0x000000000000000000000000dc6d4872390e38e7c9577a64eaafd15af724e1ec",
            "0xfffffffffffffffffffffffffffffffffffffffffffffffffffffffffffcf644",
            "0xfffffffffffffffffffffffffffffffffffffffffffffffffffffffffffcf964"
          ],
          "data": "0x000000000000000000000000dc6d4872390e38e7c9577a64eaafd15af724e1ec000000000000000000000000000000000000000000000000000000073507193900000000000000000000000000000000000000000000000000000b931dbe27f5000000000000000000000000000000000000000000000000000000000000734d",
          "blockHash": "0xe5a5122bcf1c345012179ca56d9c64c75ad518c2fff5554f79a71a50efa7e929",
          "blockNumber": "0xf11fef5",
          "transactionHash": "0xc8119ac9e1d7b0238592438f975870fcf88c7cc24f21bcde4f0a201d273fc2c6",
          "transactionIndex": "0x3",
          "logIndex": "0x16",
          "removed": false
        },
        {
          "address": "0xdc6d4872390e38e7c9577a64eaafd15af724e1ec",
          "topics": [
            "0x8f7ac88db5b2733b40d4b71d2053e668da86665f448bb5f0c65e9076c6e57bac"
          ],
          "data": "0xfffffffffffffffffffffffffffffffffffffffffffffffffffffffffffcf644fffffffffffffffffffffffffffffffffffffffffffffffffffffffffffcf964000000000000000000000000000000000000000000000000000000073507193900000000000000000000000000000000000000000000000000000b931dbe27f5000000000000000000000000000000000000000000000000000000000000734d",
          "blockHash": "0xe5a5122bcf1c345012179ca56d9c64c75ad518c2fff5554f79a71a50efa7e929",
          "blockNumber": "0xf11fef5",
          "transactionHash": "0xc8119ac9e1d7b0238592438f975870fcf88c7cc24f21bcde4f0a201d273fc2c6",
          "transactionIndex": "0x3",
          "logIndex": "0x17",
          "removed": false
        },
        {
          "address": "0xdc6d4872390e38e7c9577a64eaafd15af724e1ec",
          "topics": [
            "0xfbde797d201c681b91056529119e0b02407c7bb96a4a2c75c01fc9667232c8db",
            "0x0000000000000000000000008d38cdf481b15fce5e38de304825e034f9ebe0e7",
            "0x0000000000000000000000008d38cdf481b15fce5e38de304825e034f9ebe0e7",
            "0x0000000000000000000000008d38cdf481b15fce5e38de304825e034f9ebe0e7"
          ],
          "data": "0x00000000000000000000000000000000000000000000000000000598c52caa180000000000000000000000000000000000000000000000000000059edb995e11",
          "blockHash": "0xe5a5122bcf1c345012179ca56d9c64c75ad518c2fff5554f79a71a50efa7e929",
          "blockNumber": "0xf11fef5",
          "transactionHash": "0xc8119ac9e1d7b0238592438f975870fcf88c7cc24f21bcde4f0a201d273fc2c6",
          "transactionIndex": "0x3",
          "logIndex": "0x18",
          "removed": false
        }
      ],
      "logsBloom": "0x00000002100000400010100002000000000000000000000000000000000000000000000000000000000000200200000000004001000020000200001000200000010040010000000800200009000000000040000008020000000000000000000000000000020000000004100400000800002000000004000000000010000800000000000008080000000000440000000000008000002020000000000000000000020000000000800000000010808000060000000000000000000000000000000000002002000000000200080000000000000000000000800008000000000024000010080800040000000000000000200000000000000000000000000000000000",
      "type": "0x2",
      "transactionHash": "0xc8119ac9e1d7b0238592438f975870fcf88c7cc24f21bcde4f0a201d273fc2c6",
      "transactionIndex": "0x3",
      "blockHash": "0xe5a5122bcf1c345012179ca56d9c64c75ad518c2fff5554f79a71a50efa7e929",
      "blockNumber": "0xf11fef5",
      "gasUsed": "0x85546",
      "effectiveGasPrice": "0x989680",
      "from": "0x8d38cdf481b15fce5e38de304825e034f9ebe0e7",
      "to": "0xdc6d4872390e38e7c9577a64eaafd15af724e1ec",
      "contractAddress": null,
      "gasUsedForL1": "0x9f44",
      "l1BlockNumber": "0x13c69fb"
    }
  ],
  "libraries": [],
  "pending": [],
  "returns": {},
  "timestamp": 1726167971,
  "chain": 42161,
  "commit": "6c5970c"
}