{
  "transactions": [
    {
      "hash": "0x8dfe3eb6fadde02ab63fef59b558459d54d1c4986e380d3b19584c5f305afbc3",
      "transactionType": "CALL",
      "contractName": null,
      "contractAddress": "0xe2567901559fc75903cfead2f147ba65940c06b7",
      "function": "redeem(uint256,address,address)",
      "arguments": [
        "100000000000",
        "0x8D38cdf481b15fCe5e38de304825E034f9ebe0E7",
        "0x8D38cdf481b15fCe5e38de304825E034f9ebe0E7"
      ],
      "transaction": {
        "from": "0x8d38cdf481b15fce5e38de304825e034f9ebe0e7",
        "to": "0xe2567901559fc75903cfead2f147ba65940c06b7",
        "gas": "0xb46bf",
        "value": "0x0",
        "input": "0xba087652000000000000000000000000000000000000000000000000000000174876e8000000000000000000000000008d38cdf481b15fce5e38de304825e034f9ebe0e70000000000000000000000008d38cdf481b15fce5e38de304825e034f9ebe0e7",
        "nonce": "0x10",
        "chainId": "0xa4b1"
      },
      "additionalContracts": [],
      "isFixedGasLimit": false
    }
  ],
  "receipts": [
    {
      "status": "0x1",
      "cumulativeGasUsed": "0x1f4e4c",
      "logs": [
        {
          "address": "0xe2567901559fc75903cfead2f147ba65940c06b7",
          "topics": [
            "0xddf252ad1be2c89b69c2b068fc378daa952ba7f163c4a11628f55a4df523b3ef",
            "0x0000000000000000000000008d38cdf481b15fce5e38de304825e034f9ebe0e7",
            "0x0000000000000000000000000000000000000000000000000000000000000000"
          ],
          "data": "0x000000000000000000000000000000000000000000000000000000174876e800",
          "blockHash": "0x10064d8bc1c9cc3d8d88da29e6d2a514f77d2930729d752fdc80261e6d1fa1f3",
          "blockNumber": "0xf1163dc",
          "transactionHash": "0x8dfe3eb6fadde02ab63fef59b558459d54d1c4986e380d3b19584c5f305afbc3",
          "transactionIndex": "0x4",
          "logIndex": "0x19",
          "removed": false
        },
        {
          "address": "0xc6962004f452be9203591991d15f6b388e09e8d0",
          "topics": [
            "0x0c396cd989a39f4459b5fa1aed6a9a8dcdbc45908acfd67e028cd568da98982c",
            "0x000000000000000000000000e2567901559fc75903cfead2f147ba65940c06b7",
            "0xfffffffffffffffffffffffffffffffffffffffffffffffffffffffffff9564c",
            "0x00000000000000000000000000000000000000000000000000000000000098d0"
          ],
          "data": "0x000000000000000000000000000000000000000000000000000000174876c12200000000000000000000000000000000000000000000000000075b2b1b48388a000000000000000000000000000000000000000000000000000000000049b15b",
          "blockHash": "0x10064d8bc1c9cc3d8d88da29e6d2a514f77d2930729d752fdc80261e6d1fa1f3",
          "blockNumber": "0xf1163dc",
          "transactionHash": "0x8dfe3eb6fadde02ab63fef59b558459d54d1c4986e380d3b19584c5f305afbc3",
          "transactionIndex": "0x4",
          "logIndex": "0x1a",
          "removed": false
        },
        {
          "address": "0x82af49447d8a07e3bd95bd0d56f35241523fbab1",
          "topics": [
            "0xddf252ad1be2c89b69c2b068fc378daa952ba7f163c4a11628f55a4df523b3ef",
            "0x000000000000000000000000c6962004f452be9203591991d15f6b388e09e8d0",
            "0x000000000000000000000000e2567901559fc75903cfead2f147ba65940c06b7"
          ],
          "data": "0x00000000000000000000000000000000000000000000000000075b2b2478295a",
          "blockHash": "0x10064d8bc1c9cc3d8d88da29e6d2a514f77d2930729d752fdc80261e6d1fa1f3",
          "blockNumber": "0xf1163dc",
          "transactionHash": "0x8dfe3eb6fadde02ab63fef59b558459d54d1c4986e380d3b19584c5f305afbc3",
          "transactionIndex": "0x4",
          "logIndex": "0x1b",
          "removed": false
        },
        {
          "address": "0xaf88d065e77c8cc2239327c5edb3a432268e5831",
          "topics": [
            "0xddf252ad1be2c89b69c2b068fc378daa952ba7f163c4a11628f55a4df523b3ef",
            "0x000000000000000000000000c6962004f452be9203591991d15f6b388e09e8d0",
            "0x000000000000000000000000e2567901559fc75903cfead2f147ba65940c06b7"
          ],
          "data": "0x000000000000000000000000000000000000000000000000000000000049b15b",
          "blockHash": "0x10064d8bc1c9cc3d8d88da29e6d2a514f77d2930729d752fdc80261e6d1fa1f3",
          "blockNumber": "0xf1163dc",
          "transactionHash": "0x8dfe3eb6fadde02ab63fef59b558459d54d1c4986e380d3b19584c5f305afbc3",
          "transactionIndex": "0x4",
          "logIndex": "0x1c",
          "removed": false
        },
        {
          "address": "0xc6962004f452be9203591991d15f6b388e09e8d0",
          "topics": [
            "0x70935338e69775456a85ddef226c395fb668b63fa0115f5f20610b388e6ca9c0",
            "0x000000000000000000000000e2567901559fc75903cfead2f147ba65940c06b7",
            "0xfffffffffffffffffffffffffffffffffffffffffffffffffffffffffff9564c",
            "0x00000000000000000000000000000000000000000000000000000000000098d0"
          ],
          "data": "0x000000000000000000000000e2567901559fc75903cfead2f147ba65940c06b700000000000000000000000000000000000000000000000000075b2b2478295a000000000000000000000000000000000000000000000000000000000049b15b",
          "blockHash": "0x10064d8bc1c9cc3d8d88da29e6d2a514f77d2930729d752fdc80261e6d1fa1f3",
          "blockNumber": "0xf1163dc",
          "transactionHash": "0x8dfe3eb6fadde02ab63fef59b558459d54d1c4986e380d3b19584c5f305afbc3",
          "transactionIndex": "0x4",
          "logIndex": "0x1d",
          "removed": false
        },
        {
          "address": "0x82af49447d8a07e3bd95bd0d56f35241523fbab1",
          "topics": [
            "0xddf252ad1be2c89b69c2b068fc378daa952ba7f163c4a11628f55a4df523b3ef",
            "0x000000000000000000000000e2567901559fc75903cfead2f147ba65940c06b7",
            "0x0000000000000000000000008d38cdf481b15fce5e38de304825e034f9ebe0e7"
          ],
          "data": "0x000000000000000000000000000000000000000000000000000751c0afce99c8",
          "blockHash": "0x10064d8bc1c9cc3d8d88da29e6d2a514f77d2930729d752fdc80261e6d1fa1f3",
          "blockNumber": "0xf1163dc",
          "transactionHash": "0x8dfe3eb6fadde02ab63fef59b558459d54d1c4986e380d3b19584c5f305afbc3",
          "transactionIndex": "0x4",
          "logIndex": "0x1e",
          "removed": false
        },
        {
          "address": "0xaf88d065e77c8cc2239327c5edb3a432268e5831",
          "topics": [
            "0xddf252ad1be2c89b69c2b068fc378daa952ba7f163c4a11628f55a4df523b3ef",
            "0x000000000000000000000000e2567901559fc75903cfead2f147ba65940c06b7",
            "0x0000000000000000000000008d38cdf481b15fce5e38de304825e034f9ebe0e7"
          ],
          "data": "0x0000000000000000000000000000000000000000000000000000000000495307",
          "blockHash": "0x10064d8bc1c9cc3d8d88da29e6d2a514f77d2930729d752fdc80261e6d1fa1f3",
          "blockNumber": "0xf1163dc",
          "transactionHash": "0x8dfe3eb6fadde02ab63fef59b558459d54d1c4986e380d3b19584c5f305afbc3",
          "transactionIndex": "0x4",
          "logIndex": "0x1f",
          "removed": false
        },
        {
          "address": "0x82af49447d8a07e3bd95bd0d56f35241523fbab1",
          "topics": [
            "0xddf252ad1be2c89b69c2b068fc378daa952ba7f163c4a11628f55a4df523b3ef",
            "0x000000000000000000000000e2567901559fc75903cfead2f147ba65940c06b7",
            "0x000000000000000000000000c6962004f452be9203591991d15f6b388e09e8d0"
          ],
          "data": "0x0000000000000000000000000000000000000000000000000000096ab6b3384a",
          "blockHash": "0x10064d8bc1c9cc3d8d88da29e6d2a514f77d2930729d752fdc80261e6d1fa1f3",
          "blockNumber": "0xf1163dc",
          "transactionHash": "0x8dfe3eb6fadde02ab63fef59b558459d54d1c4986e380d3b19584c5f305afbc3",
          "transactionIndex": "0x4",
          "logIndex": "0x20",
          "removed": false
        },
        {
          "address": "0xaf88d065e77c8cc2239327c5edb3a432268e5831",
          "topics": [
            "0xddf252ad1be2c89b69c2b068fc378daa952ba7f163c4a11628f55a4df523b3ef",
            "0x000000000000000000000000e2567901559fc75903cfead2f147ba65940c06b7",
            "0x000000000000000000000000c6962004f452be9203591991d15f6b388e09e8d0"
          ],
          "data": "0x0000000000000000000000000000000000000000000000000000000000005e57",
          "blockHash": "0x10064d8bc1c9cc3d8d88da29e6d2a514f77d2930729d752fdc80261e6d1fa1f3",
          "blockNumber": "0xf1163dc",
          "transactionHash": "0x8dfe3eb6fadde02ab63fef59b558459d54d1c4986e380d3b19584c5f305afbc3",
          "transactionIndex": "0x4",
          "logIndex": "0x21",
          "removed": false
        },
        {
          "address": "0xc6962004f452be9203591991d15f6b388e09e8d0",
          "topics": [
            "0x7a53080ba414158be7ec69b987b5fb7d07dee101fe85488f0853ae16239d0bde",
            "0x000000000000000000000000e2567901559fc75903cfead2f147ba65940c06b7",
            "0xfffffffffffffffffffffffffffffffffffffffffffffffffffffffffff95642",
            "0x00000000000000000000000000000000000000000000000000000000000098d0"
          ],
          "data": "0x000000000000000000000000e2567901559fc75903cfead2f147ba65940c06b7000000000000000000000000000000000000000000000000000000001dce35f80000000000000000000000000000000000000000000000000000096ab6b3384a0000000000000000000000000000000000000000000000000000000000005e57",
          "blockHash": "0x10064d8bc1c9cc3d8d88da29e6d2a514f77d2930729d752fdc80261e6d1fa1f3",
          "blockNumber": "0xf1163dc",
          "transactionHash": "0x8dfe3eb6fadde02ab63fef59b558459d54d1c4986e380d3b19584c5f305afbc3",
          "transactionIndex": "0x4",
          "logIndex": "0x22",
          "removed": false
        },
        {
          "address": "0xe2567901559fc75903cfead2f147ba65940c06b7",
          "topics": [
            "0x8f7ac88db5b2733b40d4b71d2053e668da86665f448bb5f0c65e9076c6e57bac"
          ],
          "data": "0xfffffffffffffffffffffffffffffffffffffffffffffffffffffffffff9564200000000000000000000000000000000000000000000000000000000000098d0000000000000000000000000000000000000000000000000000000001dce35f80000000000000000000000000000000000000000000000000000096ab6b3384a0000000000000000000000000000000000000000000000000000000000005e57",
          "blockHash": "0x10064d8bc1c9cc3d8d88da29e6d2a514f77d2930729d752fdc80261e6d1fa1f3",
          "blockNumber": "0xf1163dc",
          "transactionHash": "0x8dfe3eb6fadde02ab63fef59b558459d54d1c4986e380d3b19584c5f305afbc3",
          "transactionIndex": "0x4",
          "logIndex": "0x23",
          "removed": false
        },
        {
          "address": "0xe2567901559fc75903cfead2f147ba65940c06b7",
          "topics": [
            "0xfbde797d201c681b91056529119e0b02407c7bb96a4a2c75c01fc9667232c8db",
            "0x0000000000000000000000008d38cdf481b15fce5e38de304825e034f9ebe0e7",
            "0x0000000000000000000000008d38cdf481b15fce5e38de304825e034f9ebe0e7",
            "0x0000000000000000000000008d38cdf481b15fce5e38de304825e034f9ebe0e7"
          ],
          "data": "0x000000000000000000000000000000000000000000000000000000174876c122000000000000000000000000000000000000000000000000000000174876e800",
          "blockHash": "0x10064d8bc1c9cc3d8d88da29e6d2a514f77d2930729d752fdc80261e6d1fa1f3",
          "blockNumber": "0xf1163dc",
          "transactionHash": "0x8dfe3eb6fadde02ab63fef59b558459d54d1c4986e380d3b19584c5f305afbc3",
          "transactionIndex": "0x4",
          "logIndex": "0x24",
          "removed": false
        }
      ],
      "logsBloom": "0x00000040000000400010101002000000400000000002000040000000000000000000000000000000000100200000000010004001000020000200001000000000000000010000000000080009000000000040000008040000000000000000000000000000020000000000000400000800002000000004000000000010000000000000000008000000000000400000000000008000002000000000000000020000000000000000000000000000000000020000000000000000000000000000000008002002000000000000080000000000080000000040800000000000000020002800080800040000000000000000200000000000000000000000000000000000",
      "type": "0x2",
      "transactionHash": "0x8dfe3eb6fadde02ab63fef59b558459d54d1c4986e380d3b19584c5f305afbc3",
      "transactionIndex": "0x4",
      "blockHash": "0x10064d8bc1c9cc3d8d88da29e6d2a514f77d2930729d752fdc80261e6d1fa1f3",
      "blockNumber": "0xf1163dc",
      "gasUsed": "0x789a3",
      "effectiveGasPrice": "0x989680",
      "from": "0x8d38cdf481b15fce5e38de304825e034f9ebe0e7",
      "to": "0xe2567901559fc75903cfead2f147ba65940c06b7",
      "contractAddress": null,
      "gasUsedForL1": "0xe02e",
      "l1BlockNumber": "0x13c66bf"
    }
  ],
  "libraries": [],
  "pending": [],
  "returns": {},
  "timestamp": 1726157996,
  "chain": 42161,
  "commit": "9735aa6"
}