{
  "transactions": [
    {
      "hash": "0x873659e189af2096657e7678ef4bb1f5fab7c014a83eb09300b8891591725ae6",
      "transactionType": "CALL",
      "contractName": null,
      "contractAddress": "0xe2567901559fc75903cfead2f147ba65940c06b7",
      "function": "redeem(uint256,address,address)",
      "arguments": [
        "10000000",
        "0x8D38cdf481b15fCe5e38de304825E034f9ebe0E7",
        "0x8D38cdf481b15fCe5e38de304825E034f9ebe0E7"
      ],
      "transaction": {
        "from": "0x8d38cdf481b15fce5e38de304825e034f9ebe0e7",
        "to": "0xe2567901559fc75903cfead2f147ba65940c06b7",
        "gas": "0x752f2",
        "value": "0x0",
        "input": "0xba08765200000000000000000000000000000000000000000000000000000000009896800000000000000000000000008d38cdf481b15fce5e38de304825e034f9ebe0e70000000000000000000000008d38cdf481b15fce5e38de304825e034f9ebe0e7",
        "nonce": "0xe",
        "chainId": "0xa4b1"
      },
      "additionalContracts": [],
      "isFixedGasLimit": false
    }
  ],
  "receipts": [
    {
      "status": "0x1",
      "cumulativeGasUsed": "0xdee4a",
      "logs": [
        {
          "address": "0xe2567901559fc75903cfead2f147ba65940c06b7",
          "topics": [
            "0xddf252ad1be2c89b69c2b068fc378daa952ba7f163c4a11628f55a4df523b3ef",
            "0x0000000000000000000000008d38cdf481b15fce5e38de304825e034f9ebe0e7",
            "0x0000000000000000000000000000000000000000000000000000000000000000"
          ],
          "data": "0x0000000000000000000000000000000000000000000000000000000000989680",
          "blockHash": "0x2a0e0724a45b8bcb90cdaa961708dea23ac48a443d89dd27b8e64ca6b7f36600",
          "blockNumber": "0xf116185",
          "transactionHash": "0x873659e189af2096657e7678ef4bb1f5fab7c014a83eb09300b8891591725ae6",
          "transactionIndex": "0x4",
          "logIndex": "0x8",
          "removed": false
        },
        {
          "address": "0xc6962004f452be9203591991d15f6b388e09e8d0",
          "topics": [
            "0x0c396cd989a39f4459b5fa1aed6a9a8dcdbc45908acfd67e028cd568da98982c",
            "0x000000000000000000000000e2567901559fc75903cfead2f147ba65940c06b7",
            "0xfffffffffffffffffffffffffffffffffffffffffffffffffffffffffff9564c",
            "0x00000000000000000000000000000000000000000000000000000000000098d0"
          ],
          "data": "0x0000000000000000000000000000000000000000000000000000000000989ea6000000000000000000000000000000000000000000000000000000303644f17000000000000000000000000000000000000000000000000000000000000001e3",
          "blockHash": "0x2a0e0724a45b8bcb90cdaa961708dea23ac48a443d89dd27b8e64ca6b7f36600",
          "blockNumber": "0xf116185",
          "transactionHash": "0x873659e189af2096657e7678ef4bb1f5fab7c014a83eb09300b8891591725ae6",
          "transactionIndex": "0x4",
          "logIndex": "0x9",
          "removed": false
        },
        {
          "address": "0x82af49447d8a07e3bd95bd0d56f35241523fbab1",
          "topics": [
            "0xddf252ad1be2c89b69c2b068fc378daa952ba7f163c4a11628f55a4df523b3ef",
            "0x000000000000000000000000c6962004f452be9203591991d15f6b388e09e8d0",
            "0x000000000000000000000000e2567901559fc75903cfead2f147ba65940c06b7"
          ],
          "data": "0x0000000000000000000000000000000000000000000000000000003036451694",
          "blockHash": "0x2a0e0724a45b8bcb90cdaa961708dea23ac48a443d89dd27b8e64ca6b7f36600",
          "blockNumber": "0xf116185",
          "transactionHash": "0x873659e189af2096657e7678ef4bb1f5fab7c014a83eb09300b8891591725ae6",
          "transactionIndex": "0x4",
          "logIndex": "0xa",
          "removed": false
        },
        {
          "address": "0xaf88d065e77c8cc2239327c5edb3a432268e5831",
          "topics": [
            "0xddf252ad1be2c89b69c2b068fc378daa952ba7f163c4a11628f55a4df523b3ef",
            "0x000000000000000000000000c6962004f452be9203591991d15f6b388e09e8d0",
            "0x000000000000000000000000e2567901559fc75903cfead2f147ba65940c06b7"
          ],
          "data": "0x00000000000000000000000000000000000000000000000000000000000001e3",
          "blockHash": "0x2a0e0724a45b8bcb90cdaa961708dea23ac48a443d89dd27b8e64ca6b7f36600",
          "blockNumber": "0xf116185",
          "transactionHash": "0x873659e189af2096657e7678ef4bb1f5fab7c014a83eb09300b8891591725ae6",
          "transactionIndex": "0x4",
          "logIndex": "0xb",
          "removed": false
        },
        {
          "address": "0xc6962004f452be9203591991d15f6b388e09e8d0",
          "topics": [
            "0x70935338e69775456a85ddef226c395fb668b63fa0115f5f20610b388e6ca9c0",
            "0x000000000000000000000000e2567901559fc75903cfead2f147ba65940c06b7",
            "0xfffffffffffffffffffffffffffffffffffffffffffffffffffffffffff9564c",
            "0x00000000000000000000000000000000000000000000000000000000000098d0"
          ],
          "data": "0x000000000000000000000000e2567901559fc75903cfead2f147ba65940c06b7000000000000000000000000000000000000000000000000000000303645169400000000000000000000000000000000000000000000000000000000000001e3",
          "blockHash": "0x2a0e0724a45b8bcb90cdaa961708dea23ac48a443d89dd27b8e64ca6b7f36600",
          "blockNumber": "0xf116185",
          "transactionHash": "0x873659e189af2096657e7678ef4bb1f5fab7c014a83eb09300b8891591725ae6",
          "transactionIndex": "0x4",
          "logIndex": "0xc",
          "removed": false
        },
        {
          "address": "0x82af49447d8a07e3bd95bd0d56f35241523fbab1",
          "topics": [
            "0xddf252ad1be2c89b69c2b068fc378daa952ba7f163c4a11628f55a4df523b3ef",
            "0x000000000000000000000000e2567901559fc75903cfead2f147ba65940c06b7",
            "0x0000000000000000000000008d38cdf481b15fce5e38de304825e034f9ebe0e7"
          ],
          "data": "0x0000000000000000000000000000000000000000000000000000002ff43b8419",
          "blockHash": "0x2a0e0724a45b8bcb90cdaa961708dea23ac48a443d89dd27b8e64ca6b7f36600",
          "blockNumber": "0xf116185",
          "transactionHash": "0x873659e189af2096657e7678ef4bb1f5fab7c014a83eb09300b8891591725ae6",
          "transactionIndex": "0x4",
          "logIndex": "0xd",
          "removed": false
        },
        {
          "address": "0xaf88d065e77c8cc2239327c5edb3a432268e5831",
          "topics": [
            "0xddf252ad1be2c89b69c2b068fc378daa952ba7f163c4a11628f55a4df523b3ef",
            "0x000000000000000000000000e2567901559fc75903cfead2f147ba65940c06b7",
            "0x0000000000000000000000008d38cdf481b15fce5e38de304825e034f9ebe0e7"
          ],
          "data": "0x00000000000000000000000000000000000000000000000000000000000001df",
          "blockHash": "0x2a0e0724a45b8bcb90cdaa961708dea23ac48a443d89dd27b8e64ca6b7f36600",
          "blockNumber": "0xf116185",
          "transactionHash": "0x873659e189af2096657e7678ef4bb1f5fab7c014a83eb09300b8891591725ae6",
          "transactionIndex": "0x4",
          "logIndex": "0xe",
          "removed": false
        },
        {
          "address": "0xe2567901559fc75903cfead2f147ba65940c06b7",
          "topics": [
            "0xfbde797d201c681b91056529119e0b02407c7bb96a4a2c75c01fc9667232c8db",
            "0x0000000000000000000000008d38cdf481b15fce5e38de304825e034f9ebe0e7",
            "0x0000000000000000000000008d38cdf481b15fce5e38de304825e034f9ebe0e7",
            "0x0000000000000000000000008d38cdf481b15fce5e38de304825e034f9ebe0e7"
          ],
          "data": "0x0000000000000000000000000000000000000000000000000000000000989ea60000000000000000000000000000000000000000000000000000000000989680",
          "blockHash": "0x2a0e0724a45b8bcb90cdaa961708dea23ac48a443d89dd27b8e64ca6b7f36600",
          "blockNumber": "0xf116185",
          "transactionHash": "0x873659e189af2096657e7678ef4bb1f5fab7c014a83eb09300b8891591725ae6",
          "transactionIndex": "0x4",
          "logIndex": "0xf",
          "removed": false
        }
      ],
      "logsBloom": "0x00000040000000400010001002000000000000000002000040000000000000000000000000000000000100200000000000004001000020000200000000000000000000010000000000080009000000000040000008040000000000000000000000000000020000000000000400000800000000000004000000000010000000000000000000000000000000400000000000008000002000000000000000020000000000000000000000000000000000020000000000000000000000000000000008002002000000000000000000000000080000000000000000000000000020002800080800040000000000000000200000000000000000000000000000000000",
      "type": "0x2",
      "transactionHash": "0x873659e189af2096657e7678ef4bb1f5fab7c014a83eb09300b8891591725ae6",
      "transactionIndex": "0x4",
      "blockHash": "0x2a0e0724a45b8bcb90cdaa961708dea23ac48a443d89dd27b8e64ca6b7f36600",
      "blockNumber": "0xf116185",
      "gasUsed": "0x4769f",
      "effectiveGasPrice": "0x989680",
      "from": "0x8d38cdf481b15fce5e38de304825e034f9ebe0e7",
      "to": "0xe2567901559fc75903cfead2f147ba65940c06b7",
      "contractAddress": null,
      "gasUsedForL1": "0xe02e",
      "l1BlockNumber": "0x13c66b2"
    }
  ],
  "libraries": [],
  "pending": [],
  "returns": {},
  "timestamp": 1726157845,
  "chain": 42161,
  "commit": "9735aa6"
}