{
  "transactions": [
    {
      "hash": "0x7d609d6e0756cebfcbadd90ac83a6476148cf918ff11bc8358a1b9fbf522e32a",
      "transactionType": "CALL",
      "contractName": null,
      "contractAddress": "0xe2567901559fc75903cfead2f147ba65940c06b7",
      "function": "redeem(uint256,address,address)",
      "arguments": [
        "707184",
        "0x8D38cdf481b15fCe5e38de304825E034f9ebe0E7",
        "0x8D38cdf481b15fCe5e38de304825E034f9ebe0E7"
      ],
      "transaction": {
        "from": "0x8d38cdf481b15fce5e38de304825e034f9ebe0e7",
        "to": "0xe2567901559fc75903cfead2f147ba65940c06b7",
        "gas": "0xcad1c",
        "value": "0x0",
        "input": "0xba08765200000000000000000000000000000000000000000000000000000000000aca700000000000000000000000008d38cdf481b15fce5e38de304825e034f9ebe0e70000000000000000000000008d38cdf481b15fce5e38de304825e034f9ebe0e7",
        "nonce": "0xc",
        "chainId": "0xa4b1"
      },
      "additionalContracts": [],
      "isFixedGasLimit": false
    }
  ],
  "receipts": [
    {
      "status": "0x1",
      "cumulativeGasUsed": "0x4ada22",
      "logs": [
        {
          "address": "0xe2567901559fc75903cfead2f147ba65940c06b7",
          "topics": [
            "0xddf252ad1be2c89b69c2b068fc378daa952ba7f163c4a11628f55a4df523b3ef",
            "0x0000000000000000000000008d38cdf481b15fce5e38de304825e034f9ebe0e7",
            "0x0000000000000000000000000000000000000000000000000000000000000000"
          ],
          "data": "0x00000000000000000000000000000000000000000000000000000000000aca70",
          "blockHash": "0x102f35c15228965bc84deb2c98544b7da6253acb5bda806ef42059d4001e3085",
          "blockNumber": "0xf116066",
          "transactionHash": "0x7d609d6e0756cebfcbadd90ac83a6476148cf918ff11bc8358a1b9fbf522e32a",
          "transactionIndex": "0x17",
          "logIndex": "0x34",
          "removed": false
        },
        {
          "address": "0xc6962004f452be9203591991d15f6b388e09e8d0",
          "topics": [
            "0x0c396cd989a39f4459b5fa1aed6a9a8dcdbc45908acfd67e028cd568da98982c",
            "0x000000000000000000000000e2567901559fc75903cfead2f147ba65940c06b7",
            "0xfffffffffffffffffffffffffffffffffffffffffffffffffffffffffff9561a",
            "0x00000000000000000000000000000000000000000000000000000000000098d0"
          ],
          "data": "0x00000000000000000000000000000000000000000000000000000000000ac0db0000000000000000000000000000000000000000000000000000000365b7c43f0000000000000000000000000000000000000000000000000000000000000022",
          "blockHash": "0x102f35c15228965bc84deb2c98544b7da6253acb5bda806ef42059d4001e3085",
          "blockNumber": "0xf116066",
          "transactionHash": "0x7d609d6e0756cebfcbadd90ac83a6476148cf918ff11bc8358a1b9fbf522e32a",
          "transactionIndex": "0x17",
          "logIndex": "0x35",
          "removed": false
        },
        {
          "address": "0x82af49447d8a07e3bd95bd0d56f35241523fbab1",
          "topics": [
            "0xddf252ad1be2c89b69c2b068fc378daa952ba7f163c4a11628f55a4df523b3ef",
            "0x000000000000000000000000c6962004f452be9203591991d15f6b388e09e8d0",
            "0x000000000000000000000000e2567901559fc75903cfead2f147ba65940c06b7"
          ],
          "data": "0x0000000000000000000000000000000000000000000000000000000365b7c8c5",
          "blockHash": "0x102f35c15228965bc84deb2c98544b7da6253acb5bda806ef42059d4001e3085",
          "blockNumber": "0xf116066",
          "transactionHash": "0x7d609d6e0756cebfcbadd90ac83a6476148cf918ff11bc8358a1b9fbf522e32a",
          "transactionIndex": "0x17",
          "logIndex": "0x36",
          "removed": false
        },
        {
          "address": "0xaf88d065e77c8cc2239327c5edb3a432268e5831",
          "topics": [
            "0xddf252ad1be2c89b69c2b068fc378daa952ba7f163c4a11628f55a4df523b3ef",
            "0x000000000000000000000000c6962004f452be9203591991d15f6b388e09e8d0",
            "0x000000000000000000000000e2567901559fc75903cfead2f147ba65940c06b7"
          ],
          "data": "0x0000000000000000000000000000000000000000000000000000000000000022",
          "blockHash": "0x102f35c15228965bc84deb2c98544b7da6253acb5bda806ef42059d4001e3085",
          "blockNumber": "0xf116066",
          "transactionHash": "0x7d609d6e0756cebfcbadd90ac83a6476148cf918ff11bc8358a1b9fbf522e32a",
          "transactionIndex": "0x17",
          "logIndex": "0x37",
          "removed": false
        },
        {
          "address": "0xc6962004f452be9203591991d15f6b388e09e8d0",
          "topics": [
            "0x70935338e69775456a85ddef226c395fb668b63fa0115f5f20610b388e6ca9c0",
            "0x000000000000000000000000e2567901559fc75903cfead2f147ba65940c06b7",
            "0xfffffffffffffffffffffffffffffffffffffffffffffffffffffffffff9561a",
            "0x00000000000000000000000000000000000000000000000000000000000098d0"
          ],
          "data": "0x000000000000000000000000e2567901559fc75903cfead2f147ba65940c06b70000000000000000000000000000000000000000000000000000000365b7c8c50000000000000000000000000000000000000000000000000000000000000022",
          "blockHash": "0x102f35c15228965bc84deb2c98544b7da6253acb5bda806ef42059d4001e3085",
          "blockNumber": "0xf116066",
          "transactionHash": "0x7d609d6e0756cebfcbadd90ac83a6476148cf918ff11bc8358a1b9fbf522e32a",
          "transactionIndex": "0x17",
          "logIndex": "0x38",
          "removed": false
        },
        {
          "address": "0x82af49447d8a07e3bd95bd0d56f35241523fbab1",
          "topics": [
            "0xddf252ad1be2c89b69c2b068fc378daa952ba7f163c4a11628f55a4df523b3ef",
            "0x000000000000000000000000e2567901559fc75903cfead2f147ba65940c06b7",
            "0x0000000000000000000000008d38cdf481b15fce5e38de304825e034f9ebe0e7"
          ],
          "data": "0x00000000000000000000000000000000000000000000000000000003615e8b9b",
          "blockHash": "0x102f35c15228965bc84deb2c98544b7da6253acb5bda806ef42059d4001e3085",
          "blockNumber": "0xf116066",
          "transactionHash": "0x7d609d6e0756cebfcbadd90ac83a6476148cf918ff11bc8358a1b9fbf522e32a",
          "transactionIndex": "0x17",
          "logIndex": "0x39",
          "removed": false
        },
        {
          "address": "0xaf88d065e77c8cc2239327c5edb3a432268e5831",
          "topics": [
            "0xddf252ad1be2c89b69c2b068fc378daa952ba7f163c4a11628f55a4df523b3ef",
            "0x000000000000000000000000e2567901559fc75903cfead2f147ba65940c06b7",
            "0x0000000000000000000000008d38cdf481b15fce5e38de304825e034f9ebe0e7"
          ],
          "data": "0x0000000000000000000000000000000000000000000000000000000000000021",
          "blockHash": "0x102f35c15228965bc84deb2c98544b7da6253acb5bda806ef42059d4001e3085",
          "blockNumber": "0xf116066",
          "transactionHash": "0x7d609d6e0756cebfcbadd90ac83a6476148cf918ff11bc8358a1b9fbf522e32a",
          "transactionIndex": "0x17",
          "logIndex": "0x3a",
          "removed": false
        },
        {
          "address": "0x82af49447d8a07e3bd95bd0d56f35241523fbab1",
          "topics": [
            "0xddf252ad1be2c89b69c2b068fc378daa952ba7f163c4a11628f55a4df523b3ef",
            "0x000000000000000000000000e2567901559fc75903cfead2f147ba65940c06b7",
            "0x000000000000000000000000c6962004f452be9203591991d15f6b388e09e8d0"
          ],
          "data": "0x000000000000000000000000000000000000000000000000000000000459082b",
          "blockHash": "0x102f35c15228965bc84deb2c98544b7da6253acb5bda806ef42059d4001e3085",
          "blockNumber": "0xf116066",
          "transactionHash": "0x7d609d6e0756cebfcbadd90ac83a6476148cf918ff11bc8358a1b9fbf522e32a",
          "transactionIndex": "0x17",
          "logIndex": "0x3b",
          "removed": false
        },
        {
          "address": "0xaf88d065e77c8cc2239327c5edb3a432268e5831",
          "topics": [
            "0xddf252ad1be2c89b69c2b068fc378daa952ba7f163c4a11628f55a4df523b3ef",
            "0x000000000000000000000000e2567901559fc75903cfead2f147ba65940c06b7",
            "0x000000000000000000000000c6962004f452be9203591991d15f6b388e09e8d0"
          ],
          "data": "0x0000000000000000000000000000000000000000000000000000000000000001",
          "blockHash": "0x102f35c15228965bc84deb2c98544b7da6253acb5bda806ef42059d4001e3085",
          "blockNumber": "0xf116066",
          "transactionHash": "0x7d609d6e0756cebfcbadd90ac83a6476148cf918ff11bc8358a1b9fbf522e32a",
          "transactionIndex": "0x17",
          "logIndex": "0x3c",
          "removed": false
        },
        {
          "address": "0xc6962004f452be9203591991d15f6b388e09e8d0",
          "topics": [
            "0x7a53080ba414158be7ec69b987b5fb7d07dee101fe85488f0853ae16239d0bde",
            "0x000000000000000000000000e2567901559fc75903cfead2f147ba65940c06b7",
            "0xfffffffffffffffffffffffffffffffffffffffffffffffffffffffffff9564c",
            "0x00000000000000000000000000000000000000000000000000000000000098d0"
          ],
          "data": "0x000000000000000000000000e2567901559fc75903cfead2f147ba65940c06b70000000000000000000000000000000000000000000000000000000000000dc3000000000000000000000000000000000000000000000000000000000459082b0000000000000000000000000000000000000000000000000000000000000001",
          "blockHash": "0x102f35c15228965bc84deb2c98544b7da6253acb5bda806ef42059d4001e3085",
          "blockNumber": "0xf116066",
          "transactionHash": "0x7d609d6e0756cebfcbadd90ac83a6476148cf918ff11bc8358a1b9fbf522e32a",
          "transactionIndex": "0x17",
          "logIndex": "0x3d",
          "removed": false
        },
        {
          "address": "0xe2567901559fc75903cfead2f147ba65940c06b7",
          "topics": [
            "0x8f7ac88db5b2733b40d4b71d2053e668da86665f448bb5f0c65e9076c6e57bac"
          ],
          "data": "0xfffffffffffffffffffffffffffffffffffffffffffffffffffffffffff9564c00000000000000000000000000000000000000000000000000000000000098d00000000000000000000000000000000000000000000000000000000000000dc3000000000000000000000000000000000000000000000000000000000459082b0000000000000000000000000000000000000000000000000000000000000001",
          "blockHash": "0x102f35c15228965bc84deb2c98544b7da6253acb5bda806ef42059d4001e3085",
          "blockNumber": "0xf116066",
          "transactionHash": "0x7d609d6e0756cebfcbadd90ac83a6476148cf918ff11bc8358a1b9fbf522e32a",
          "transactionIndex": "0x17",
          "logIndex": "0x3e",
          "removed": false
        },
        {
          "address": "0xe2567901559fc75903cfead2f147ba65940c06b7",
          "topics": [
            "0xfbde797d201c681b91056529119e0b02407c7bb96a4a2c75c01fc9667232c8db",
            "0x0000000000000000000000008d38cdf481b15fce5e38de304825e034f9ebe0e7",
            "0x0000000000000000000000008d38cdf481b15fce5e38de304825e034f9ebe0e7",
            "0x0000000000000000000000008d38cdf481b15fce5e38de304825e034f9ebe0e7"
          ],
          "data": "0x00000000000000000000000000000000000000000000000000000000000ac0db00000000000000000000000000000000000000000000000000000000000aca70",
          "blockHash": "0x102f35c15228965bc84deb2c98544b7da6253acb5bda806ef42059d4001e3085",
          "blockNumber": "0xf116066",
          "transactionHash": "0x7d609d6e0756cebfcbadd90ac83a6476148cf918ff11bc8358a1b9fbf522e32a",
          "transactionIndex": "0x17",
          "logIndex": "0x3f",
          "removed": false
        }
      ],
      "logsBloom": "0x00000040000000400010101002000000000000000002000040000000000000000000004000000000000100200000000000004001000020000200001000000000000000010000000000080009000000000040000008040000000000000000000000000000020000000000000400000800002000000004000000000010000000000000000008000800000000400000000000008000002000000000000000020000000000000000000000000000000000020000000000000000000000000000000008002002000000000000080040000000080000000000800000000000000020002800080800040000000000000000200000000000000000000000000000000000",
      "type": "0x2",
      "transactionHash": "0x7d609d6e0756cebfcbadd90ac83a6476148cf918ff11bc8358a1b9fbf522e32a",
      "transactionIndex": "0x17",
      "blockHash": "0x102f35c15228965bc84deb2c98544b7da6253acb5bda806ef42059d4001e3085",
      "blockNumber": "0xf116066",
      "gasUsed": "0x822e7",
      "effectiveGasPrice": "0x989680",
      "from": "0x8d38cdf481b15fce5e38de304825e034f9ebe0e7",
      "to": "0xe2567901559fc75903cfead2f147ba65940c06b7",
      "contractAddress": null,
      "gasUsedForL1": "0xe02e",
      "l1BlockNumber": "0x13c66ac"
    }
  ],
  "libraries": [],
  "pending": [],
  "returns": {},
  "timestamp": 1726157774,
  "chain": 42161,
  "commit": "9735aa6"
}