{
  "transactions": [
    {
      "hash": "0x4f063e8583bd9913eb02b0c542e5c353a9af9b1bd9106fce5ca28f7a52c2dab9",
      "transactionType": "CALL",
      "contractName": null,
      "contractAddress": "0x6b14effec7878ab8fee89c5334b13341a92c5573",
      "function": "redeem(uint256,address,address)",
      "arguments": [
        "25838736851347",
        "0x8D38cdf481b15fCe5e38de304825E034f9ebe0E7",
        "0x8D38cdf481b15fCe5e38de304825E034f9ebe0E7"
      ],
      "transaction": {
        "from": "0x8d38cdf481b15fce5e38de304825e034f9ebe0e7",
        "to": "0x6b14effec7878ab8fee89c5334b13341a92c5573",
        "gas": "0x71ea7",
        "value": "0x0",
        "input": "0xba087652000000000000000000000000000000000000000000000000000017800cbb41930000000000000000000000008d38cdf481b15fce5e38de304825e034f9ebe0e70000000000000000000000008d38cdf481b15fce5e38de304825e034f9ebe0e7",
        "nonce": "0x1b",
        "chainId": "0xa4b1"
      },
      "additionalContracts": [],
      "isFixedGasLimit": false
    }
  ],
  "receipts": [
    {
      "status": "0x1",
      "cumulativeGasUsed": "0xb0ff3",
      "logs": [
        {
          "address": "0x6b14effec7878ab8fee89c5334b13341a92c5573",
          "topics": [
            "0xddf252ad1be2c89b69c2b068fc378daa952ba7f163c4a11628f55a4df523b3ef",
            "0x0000000000000000000000008d38cdf481b15fce5e38de304825e034f9ebe0e7",
            "0x0000000000000000000000000000000000000000000000000000000000000000"
          ],
          "data": "0x000000000000000000000000000000000000000000000000000017800cbb4193",
          "blockHash": "0xc4eea7211a9f67f49d71885c0ee1fae80abdbd0adb0c787a8a06e135a5b350e5",
          "blockNumber": "0xf11a2df",
          "transactionHash": "0x4f063e8583bd9913eb02b0c542e5c353a9af9b1bd9106fce5ca28f7a52c2dab9",
          "transactionIndex": "0x2",
          "logIndex": "0x6",
          "removed": false
        },
        {
          "address": "0xc6962004f452be9203591991d15f6b388e09e8d0",
          "topics": [
            "0x0c396cd989a39f4459b5fa1aed6a9a8dcdbc45908acfd67e028cd568da98982c",
            "0x0000000000000000000000006b14effec7878ab8fee89c5334b13341a92c5573",
            "0xfffffffffffffffffffffffffffffffffffffffffffffffffffffffffffcf61c",
            "0xfffffffffffffffffffffffffffffffffffffffffffffffffffffffffffcf93c"
          ],
          "data": "0x000000000000000000000000000000000000000000000000000017800cafdea300000000000000000000000000000000000000000000000000253990c2f77bc000000000000000000000000000000000000000000000000000000000017d2709",
          "blockHash": "0xc4eea7211a9f67f49d71885c0ee1fae80abdbd0adb0c787a8a06e135a5b350e5",
          "blockNumber": "0xf11a2df",
          "transactionHash": "0x4f063e8583bd9913eb02b0c542e5c353a9af9b1bd9106fce5ca28f7a52c2dab9",
          "transactionIndex": "0x2",
          "logIndex": "0x7",
          "removed": false
        },
        {
          "address": "0x82af49447d8a07e3bd95bd0d56f35241523fbab1",
          "topics": [
            "0xddf252ad1be2c89b69c2b068fc378daa952ba7f163c4a11628f55a4df523b3ef",
            "0x000000000000000000000000c6962004f452be9203591991d15f6b388e09e8d0",
            "0x0000000000000000000000006b14effec7878ab8fee89c5334b13341a92c5573"
          ],
          "data": "0x000000000000000000000000000000000000000000000000002539b4ec5db6fd",
          "blockHash": "0xc4eea7211a9f67f49d71885c0ee1fae80abdbd0adb0c787a8a06e135a5b350e5",
          "blockNumber": "0xf11a2df",
          "transactionHash": "0x4f063e8583bd9913eb02b0c542e5c353a9af9b1bd9106fce5ca28f7a52c2dab9",
          "transactionIndex": "0x2",
          "logIndex": "0x8",
          "removed": false
        },
        {
          "address": "0xaf88d065e77c8cc2239327c5edb3a432268e5831",
          "topics": [
            "0xddf252ad1be2c89b69c2b068fc378daa952ba7f163c4a11628f55a4df523b3ef",
            "0x000000000000000000000000c6962004f452be9203591991d15f6b388e09e8d0",
            "0x0000000000000000000000006b14effec7878ab8fee89c5334b13341a92c5573"
          ],
          "data": "0x00000000000000000000000000000000000000000000000000000000017d285d",
          "blockHash": "0xc4eea7211a9f67f49d71885c0ee1fae80abdbd0adb0c787a8a06e135a5b350e5",
          "blockNumber": "0xf11a2df",
          "transactionHash": "0x4f063e8583bd9913eb02b0c542e5c353a9af9b1bd9106fce5ca28f7a52c2dab9",
          "transactionIndex": "0x2",
          "logIndex": "0x9",
          "removed": false
        },
        {
          "address": "0xc6962004f452be9203591991d15f6b388e09e8d0",
          "topics": [
            "0x70935338e69775456a85ddef226c395fb668b63fa0115f5f20610b388e6ca9c0",
            "0x0000000000000000000000006b14effec7878ab8fee89c5334b13341a92c5573",
            "0xfffffffffffffffffffffffffffffffffffffffffffffffffffffffffffcf61c",
            "0xfffffffffffffffffffffffffffffffffffffffffffffffffffffffffffcf93c"
          ],
          "data": "0x0000000000000000000000006b14effec7878ab8fee89c5334b13341a92c5573000000000000000000000000000000000000000000000000002539b4ec5db6fd00000000000000000000000000000000000000000000000000000000017d285d",
          "blockHash": "0xc4eea7211a9f67f49d71885c0ee1fae80abdbd0adb0c787a8a06e135a5b350e5",
          "blockNumber": "0xf11a2df",
          "transactionHash": "0x4f063e8583bd9913eb02b0c542e5c353a9af9b1bd9106fce5ca28f7a52c2dab9",
          "transactionIndex": "0x2",
          "logIndex": "0xa",
          "removed": false
        },
        {
          "address": "0x82af49447d8a07e3bd95bd0d56f35241523fbab1",
          "topics": [
            "0xddf252ad1be2c89b69c2b068fc378daa952ba7f163c4a11628f55a4df523b3ef",
            "0x0000000000000000000000006b14effec7878ab8fee89c5334b13341a92c5573",
            "0x0000000000000000000000008d38cdf481b15fce5e38de304825e034f9ebe0e7"
          ],
          "data": "0x00000000000000000000000000000000000000000000000000250a0ee610723b",
          "blockHash": "0xc4eea7211a9f67f49d71885c0ee1fae80abdbd0adb0c787a8a06e135a5b350e5",
          "blockNumber": "0xf11a2df",
          "transactionHash": "0x4f063e8583bd9913eb02b0c542e5c353a9af9b1bd9106fce5ca28f7a52c2dab9",
          "transactionIndex": "0x2",
          "logIndex": "0xb",
          "removed": false
        },
        {
          "address": "0xaf88d065e77c8cc2239327c5edb3a432268e5831",
          "topics": [
            "0xddf252ad1be2c89b69c2b068fc378daa952ba7f163c4a11628f55a4df523b3ef",
            "0x0000000000000000000000006b14effec7878ab8fee89c5334b13341a92c5573",
            "0x0000000000000000000000008d38cdf481b15fce5e38de304825e034f9ebe0e7"
          ],
          "data": "0x00000000000000000000000000000000000000000000000000000000017b407b",
          "blockHash": "0xc4eea7211a9f67f49d71885c0ee1fae80abdbd0adb0c787a8a06e135a5b350e5",
          "blockNumber": "0xf11a2df",
          "transactionHash": "0x4f063e8583bd9913eb02b0c542e5c353a9af9b1bd9106fce5ca28f7a52c2dab9",
          "transactionIndex": "0x2",
          "logIndex": "0xc",
          "removed": false
        },
        {
          "address": "0x6b14effec7878ab8fee89c5334b13341a92c5573",
          "topics": [
            "0xfbde797d201c681b91056529119e0b02407c7bb96a4a2c75c01fc9667232c8db",
            "0x0000000000000000000000008d38cdf481b15fce5e38de304825e034f9ebe0e7",
            "0x0000000000000000000000008d38cdf481b15fce5e38de304825e034f9ebe0e7",
            "0x0000000000000000000000008d38cdf481b15fce5e38de304825e034f9ebe0e7"
          ],
          "data": "0x000000000000000000000000000000000000000000000000000017800cafdea3000000000000000000000000000000000000000000000000000017800cbb4193",
          "blockHash": "0xc4eea7211a9f67f49d71885c0ee1fae80abdbd0adb0c787a8a06e135a5b350e5",
          "blockNumber": "0xf11a2df",
          "transactionHash": "0x4f063e8583bd9913eb02b0c542e5c353a9af9b1bd9106fce5ca28f7a52c2dab9",
          "transactionIndex": "0x2",
          "logIndex": "0xd",
          "removed": false
        }
      ],
      "logsBloom": "0x00000000000000400010000002000000000001000000000000000000000000000000000000000000000000200000000000004001000020000200000100000000000000090000000000000009000000000040000008000000000000000100000000000000022000000000000400000800000000000004004000000010000000000000000000000000000000404000000000008000002000000000000000000000000000000000000000000000000000020000000000000000000000000000000010002002000000200000000000000000000000000020000000000000000020000000080800040000000010000000200000000000000000000000000000000008",
      "type": "0x2",
      "transactionHash": "0x4f063e8583bd9913eb02b0c542e5c353a9af9b1bd9106fce5ca28f7a52c2dab9",
      "transactionIndex": "0x2",
      "blockHash": "0xc4eea7211a9f67f49d71885c0ee1fae80abdbd0adb0c787a8a06e135a5b350e5",
      "blockNumber": "0xf11a2df",
      "gasUsed": "0x4c05b",
      "effectiveGasPrice": "0x989680",
      "from": "0x8d38cdf481b15fce5e38de304825e034f9ebe0e7",
      "to": "0x6b14effec7878ab8fee89c5334b13341a92c5573",
      "contractAddress": null,
      "gasUsedForL1": "0x889e",
      "l1BlockNumber": "0x13c6810"
    }
  ],
  "libraries": [],
  "pending": [],
  "returns": {},
  "timestamp": 1726162044,
  "chain": 42161,
  "commit": "9735aa6"
}