{
  "transactions": [
    {
      "hash": "0x7b10576aecea22ccc46bdd0947b58a466744cf9d9e53e143f1f14b96fe58ff7e",
      "transactionType": "CALL",
      "contractName": null,
      "contractAddress": "0xdc6d4872390e38e7c9577a64eaafd15af724e1ec",
      "function": "deposit(uint256,address)",
      "arguments": [
        "1089923609258",
        "0x8D38cdf481b15fCe5e38de304825E034f9ebe0E7"
      ],
      "transaction": {
        "from": "0x8d38cdf481b15fce5e38de304825e034f9ebe0e7",
        "to": "0xdc6d4872390e38e7c9577a64eaafd15af724e1ec",
        "gas": "0x767d3",
        "value": "0x0",
        "input": "0x6e553f65000000000000000000000000000000000000000000000000000000fdc48272aa0000000000000000000000008d38cdf481b15fce5e38de304825e034f9ebe0e7",
        "nonce": "0x31",
        "chainId": "0xa4b1"
      },
      "additionalContracts": [],
      "isFixedGasLimit": false
    }
  ],
  "receipts": [
    {
      "status": "0x1",
      "cumulativeGasUsed": "0x13f1ef",
      "logs": [
        {
          "address": "0x82af49447d8a07e3bd95bd0d56f35241523fbab1",
          "topics": [
            "0xddf252ad1be2c89b69c2b068fc378daa952ba7f163c4a11628f55a4df523b3ef",
            "0x0000000000000000000000008d38cdf481b15fce5e38de304825e034f9ebe0e7",
            "0x000000000000000000000000dc6d4872390e38e7c9577a64eaafd15af724e1ec"
          ],
          "data": "0x0000000000000000000000000000000000000000000000000001977487efafb4",
          "blockHash": "0xf5c207946eee7c11530a16291c768fe238d76d8c6ca03970e0562eb42d836698",
          "blockNumber": "0xf11ef48",
          "transactionHash": "0x7b10576aecea22ccc46bdd0947b58a466744cf9d9e53e143f1f14b96fe58ff7e",
          "transactionIndex": "0x4",
          "logIndex": "0x12",
          "removed": false
        },
        {
          "address": "0x82af49447d8a07e3bd95bd0d56f35241523fbab1",
          "topics": [
            "0x8c5be1e5ebec7d5bd14f71427d1e84f3dd0314c0f7b2291e5b200ac8c7c3b925",
            "0x0000000000000000000000008d38cdf481b15fce5e38de304825e034f9ebe0e7",
            "0x000000000000000000000000dc6d4872390e38e7c9577a64eaafd15af724e1ec"
          ],
          "data": "0xfffffffffffffffffffffffffffffffffffffffffffffffffff6f02607de2aa8",
          "blockHash": "0xf5c207946eee7c11530a16291c768fe238d76d8c6ca03970e0562eb42d836698",
          "blockNumber": "0xf11ef48",
          "transactionHash": "0x7b10576aecea22ccc46bdd0947b58a466744cf9d9e53e143f1f14b96fe58ff7e",
          "transactionIndex": "0x4",
          "logIndex": "0x13",
          "removed": false
        },
        {
          "address": "0xaf88d065e77c8cc2239327c5edb3a432268e5831",
          "topics": [
            "0xddf252ad1be2c89b69c2b068fc378daa952ba7f163c4a11628f55a4df523b3ef",
            "0x0000000000000000000000008d38cdf481b15fce5e38de304825e034f9ebe0e7",
            "0x000000000000000000000000dc6d4872390e38e7c9577a64eaafd15af724e1ec"
          ],
          "data": "0x00000000000000000000000000000000000000000000000000000000000fdcad",
          "blockHash": "0xf5c207946eee7c11530a16291c768fe238d76d8c6ca03970e0562eb42d836698",
          "blockNumber": "0xf11ef48",
          "transactionHash": "0x7b10576aecea22ccc46bdd0947b58a466744cf9d9e53e143f1f14b96fe58ff7e",
          "transactionIndex": "0x4",
          "logIndex": "0x14",
          "removed": false
        },
        {
          "address": "0x82af49447d8a07e3bd95bd0d56f35241523fbab1",
          "topics": [
            "0xddf252ad1be2c89b69c2b068fc378daa952ba7f163c4a11628f55a4df523b3ef",
            "0x000000000000000000000000dc6d4872390e38e7c9577a64eaafd15af724e1ec",
            "0x000000000000000000000000c6962004f452be9203591991d15f6b388e09e8d0"
          ],
          "data": "0x0000000000000000000000000000000000000000000000000001977487efaf8e",
          "blockHash": "0xf5c207946eee7c11530a16291c768fe238d76d8c6ca03970e0562eb42d836698",
          "blockNumber": "0xf11ef48",
          "transactionHash": "0x7b10576aecea22ccc46bdd0947b58a466744cf9d9e53e143f1f14b96fe58ff7e",
          "transactionIndex": "0x4",
          "logIndex": "0x15",
          "removed": false
        },
        {
          "address": "0xaf88d065e77c8cc2239327c5edb3a432268e5831",
          "topics": [
            "0xddf252ad1be2c89b69c2b068fc378daa952ba7f163c4a11628f55a4df523b3ef",
            "0x000000000000000000000000dc6d4872390e38e7c9577a64eaafd15af724e1ec",
            "0x000000000000000000000000c6962004f452be9203591991d15f6b388e09e8d0"
          ],
          "data": "0x00000000000000000000000000000000000000000000000000000000000f7b45",
          "blockHash": "0xf5c207946eee7c11530a16291c768fe238d76d8c6ca03970e0562eb42d836698",
          "blockNumber": "0xf11ef48",
          "transactionHash": "0x7b10576aecea22ccc46bdd0947b58a466744cf9d9e53e143f1f14b96fe58ff7e",
          "transactionIndex": "0x4",
          "logIndex": "0x16",
          "removed": false
        },
        {
          "address": "0xc6962004f452be9203591991d15f6b388e09e8d0",
          "topics": [
            "0x7a53080ba414158be7ec69b987b5fb7d07dee101fe85488f0853ae16239d0bde",
            "0x000000000000000000000000dc6d4872390e38e7c9577a64eaafd15af724e1ec",
            "0xfffffffffffffffffffffffffffffffffffffffffffffffffffffffffffcf64e",
            "0xfffffffffffffffffffffffffffffffffffffffffffffffffffffffffffcf978"
          ],
          "data": "0x000000000000000000000000dc6d4872390e38e7c9577a64eaafd15af724e1ec000000000000000000000000000000000000000000000000000000f7ae17006a0000000000000000000000000000000000000000000000000001977487efaf8e00000000000000000000000000000000000000000000000000000000000f7b45",
          "blockHash": "0xf5c207946eee7c11530a16291c768fe238d76d8c6ca03970e0562eb42d836698",
          "blockNumber": "0xf11ef48",
          "transactionHash": "0x7b10576aecea22ccc46bdd0947b58a466744cf9d9e53e143f1f14b96fe58ff7e",
          "transactionIndex": "0x4",
          "logIndex": "0x17",
          "removed": false
        },
        {
          "address": "0xdc6d4872390e38e7c9577a64eaafd15af724e1ec",
          "topics": [
            "0xddf252ad1be2c89b69c2b068fc378daa952ba7f163c4a11628f55a4df523b3ef",
            "0x0000000000000000000000000000000000000000000000000000000000000000",
            "0x0000000000000000000000008d38cdf481b15fce5e38de304825e034f9ebe0e7"
          ],
          "data": "0x000000000000000000000000000000000000000000000000000000fdc482ab67",
          "blockHash": "0xf5c207946eee7c11530a16291c768fe238d76d8c6ca03970e0562eb42d836698",
          "blockNumber": "0xf11ef48",
          "transactionHash": "0x7b10576aecea22ccc46bdd0947b58a466744cf9d9e53e143f1f14b96fe58ff7e",
          "transactionIndex": "0x4",
          "logIndex": "0x18",
          "removed": false
        },
        {
          "address": "0x82af49447d8a07e3bd95bd0d56f35241523fbab1",
          "topics": [
            "0xddf252ad1be2c89b69c2b068fc378daa952ba7f163c4a11628f55a4df523b3ef",
            "0x000000000000000000000000dc6d4872390e38e7c9577a64eaafd15af724e1ec",
            "0x0000000000000000000000008d38cdf481b15fce5e38de304825e034f9ebe0e7"
          ],
          "data": "0x0000000000000000000000000000000000000000000000000000000000000026",
          "blockHash": "0xf5c207946eee7c11530a16291c768fe238d76d8c6ca03970e0562eb42d836698",
          "blockNumber": "0xf11ef48",
          "transactionHash": "0x7b10576aecea22ccc46bdd0947b58a466744cf9d9e53e143f1f14b96fe58ff7e",
          "transactionIndex": "0x4",
          "logIndex": "0x19",
          "removed": false
        },
        {
          "address": "0xaf88d065e77c8cc2239327c5edb3a432268e5831",
          "topics": [
            "0xddf252ad1be2c89b69c2b068fc378daa952ba7f163c4a11628f55a4df523b3ef",
            "0x000000000000000000000000dc6d4872390e38e7c9577a64eaafd15af724e1ec",
            "0x0000000000000000000000008d38cdf481b15fce5e38de304825e034f9ebe0e7"
          ],
          "data": "0x0000000000000000000000000000000000000000000000000000000000006168",
          "blockHash": "0xf5c207946eee7c11530a16291c768fe238d76d8c6ca03970e0562eb42d836698",
          "blockNumber": "0xf11ef48",
          "transactionHash": "0x7b10576aecea22ccc46bdd0947b58a466744cf9d9e53e143f1f14b96fe58ff7e",
          "transactionIndex": "0x4",
          "logIndex": "0x1a",
          "removed": false
        },
        {
          "address": "0xdc6d4872390e38e7c9577a64eaafd15af724e1ec",
          "topics": [
            "0xdcbc1c05240f31ff3ad067ef1ee35ce4997762752e3a095284754544f4c709d7",
            "0x0000000000000000000000008d38cdf481b15fce5e38de304825e034f9ebe0e7",
            "0x0000000000000000000000008d38cdf481b15fce5e38de304825e034f9ebe0e7"
          ],
          "data": "0x000000000000000000000000000000000000000000000000000000f7ae17006a000000000000000000000000000000000000000000000000000000fdc482ab67",
          "blockHash": "0xf5c207946eee7c11530a16291c768fe238d76d8c6ca03970e0562eb42d836698",
          "blockNumber": "0xf11ef48",
          "transactionHash": "0x7b10576aecea22ccc46bdd0947b58a466744cf9d9e53e143f1f14b96fe58ff7e",
          "transactionIndex": "0x4",
          "logIndex": "0x1b",
          "removed": false
        }
      ],
      "logsBloom": "0x00000000100000000010100000000000000000000000000000000000000000000000000000000000000000200200000000004001000020000000000000200000000000410000000000200009000000000040000008020000000000000000000000000000020000000004000400000800000000000004000000000010000000000000000008000000000000440000000000000000002020000000000000000000020000000000000000000010008000000000000000000000000000000000000000002002000000000200080000000000000000000008000008000000000020000010000800000000000000000000200000000000000000000000000000000000",
      "type": "0x2",
      "transactionHash": "0x7b10576aecea22ccc46bdd0947b58a466744cf9d9e53e143f1f14b96fe58ff7e",
      "transactionIndex": "0x4",
      "blockHash": "0xf5c207946eee7c11530a16291c768fe238d76d8c6ca03970e0562eb42d836698",
      "blockNumber": "0xf11ef48",
      "gasUsed": "0x4d125",
      "effectiveGasPrice": "0x989680",
      "from": "0x8d38cdf481b15fce5e38de304825e034f9ebe0e7",
      "to": "0xdc6d4872390e38e7c9577a64eaafd15af724e1ec",
      "contractAddress": null,
      "gasUsedForL1": "0xaff7",
      "l1BlockNumber": "0x13c69aa"
    }
  ],
  "libraries": [],
  "pending": [],
  "returns": {},
  "timestamp": 1726166970,
  "chain": 42161,
  "commit": "dc75654"
}