{
  "transactions": [
    {
      "hash": "0x8d944d78dbac4fa68c446085f3b84db5ae7472c1c53b5a443884e7b5eecfed81",
      "transactionType": "CALL",
      "contractName": null,
      "contractAddress": "0xe2567901559fc75903cfead2f147ba65940c06b7",
      "function": "deposit(uint256,address)",
      "arguments": [
        "100000000000",
        "0x8D38cdf481b15fCe5e38de304825E034f9ebe0E7"
      ],
      "transaction": {
        "from": "0x8d38cdf481b15fce5e38de304825e034f9ebe0e7",
        "to": "0xe2567901559fc75903cfead2f147ba65940c06b7",
        "gas": "0xa7318",
        "value": "0x0",
        "input": "0x6e553f65000000000000000000000000000000000000000000000000000000174876e8000000000000000000000000008d38cdf481b15fce5e38de304825e034f9ebe0e7",
        "nonce": "0xf",
        "chainId": "0xa4b1"
      },
      "additionalContracts": [],
      "isFixedGasLimit": false
    }
  ],
  "receipts": [
    {
      "status": "0x1",
      "cumulativeGasUsed": "0x7894c",
      "logs": [
        {
          "address": "0x82af49447d8a07e3bd95bd0d56f35241523fbab1",
          "topics": [
            "0xddf252ad1be2c89b69c2b068fc378daa952ba7f163c4a11628f55a4df523b3ef",
            "0x0000000000000000000000008d38cdf481b15fce5e38de304825e034f9ebe0e7",
            "0x000000000000000000000000e2567901559fc75903cfead2f147ba65940c06b7"
          ],
          "data": "0x00000000000000000000000000000000000000000000000000075ae3702e647b",
          "blockHash": "0xd082e38eaea0505ad4b029e41ccbe63023186f2d1ba3b2ceea87fa6e77e21433",
          "blockNumber": "0xf11620e",
          "transactionHash": "0x8d944d78dbac4fa68c446085f3b84db5ae7472c1c53b5a443884e7b5eecfed81",
          "transactionIndex": "0x1",
          "logIndex": "0x0",
          "removed": false
        },
        {
          "address": "0x82af49447d8a07e3bd95bd0d56f35241523fbab1",
          "topics": [
            "0x8c5be1e5ebec7d5bd14f71427d1e84f3dd0314c0f7b2291e5b200ac8c7c3b925",
            "0x0000000000000000000000008d38cdf481b15fce5e38de304825e034f9ebe0e7",
            "0x000000000000000000000000e2567901559fc75903cfead2f147ba65940c06b7"
          ],
          "data": "0xfffffffffffffffffffffffffffffffffffffffffffffffffff8a4e8f39360d7",
          "blockHash": "0xd082e38eaea0505ad4b029e41ccbe63023186f2d1ba3b2ceea87fa6e77e21433",
          "blockNumber": "0xf11620e",
          "transactionHash": "0x8d944d78dbac4fa68c446085f3b84db5ae7472c1c53b5a443884e7b5eecfed81",
          "transactionIndex": "0x1",
          "logIndex": "0x1",
          "removed": false
        },
        {
          "address": "0xaf88d065e77c8cc2239327c5edb3a432268e5831",
          "topics": [
            "0xddf252ad1be2c89b69c2b068fc378daa952ba7f163c4a11628f55a4df523b3ef",
            "0x0000000000000000000000008d38cdf481b15fce5e38de304825e034f9ebe0e7",
            "0x000000000000000000000000e2567901559fc75903cfead2f147ba65940c06b7"
          ],
          "data": "0x000000000000000000000000000000000000000000000000000000000049b42a",
          "blockHash": "0xd082e38eaea0505ad4b029e41ccbe63023186f2d1ba3b2ceea87fa6e77e21433",
          "blockNumber": "0xf11620e",
          "transactionHash": "0x8d944d78dbac4fa68c446085f3b84db5ae7472c1c53b5a443884e7b5eecfed81",
          "transactionIndex": "0x1",
          "logIndex": "0x2",
          "removed": false
        },
        {
          "address": "0x82af49447d8a07e3bd95bd0d56f35241523fbab1",
          "topics": [
            "0xddf252ad1be2c89b69c2b068fc378daa952ba7f163c4a11628f55a4df523b3ef",
            "0x000000000000000000000000e2567901559fc75903cfead2f147ba65940c06b7",
            "0x000000000000000000000000c6962004f452be9203591991d15f6b388e09e8d0"
          ],
          "data": "0x00000000000000000000000000000000000000000000000000075ae363e73988",
          "blockHash": "0xd082e38eaea0505ad4b029e41ccbe63023186f2d1ba3b2ceea87fa6e77e21433",
          "blockNumber": "0xf11620e",
          "transactionHash": "0x8d944d78dbac4fa68c446085f3b84db5ae7472c1c53b5a443884e7b5eecfed81",
          "transactionIndex": "0x1",
          "logIndex": "0x3",
          "removed": false
        },
        {
          "address": "0xaf88d065e77c8cc2239327c5edb3a432268e5831",
          "topics": [
            "0xddf252ad1be2c89b69c2b068fc378daa952ba7f163c4a11628f55a4df523b3ef",
            "0x000000000000000000000000e2567901559fc75903cfead2f147ba65940c06b7",
            "0x000000000000000000000000c6962004f452be9203591991d15f6b388e09e8d0"
          ],
          "data": "0x000000000000000000000000000000000000000000000000000000000049b42a",
          "blockHash": "0xd082e38eaea0505ad4b029e41ccbe63023186f2d1ba3b2ceea87fa6e77e21433",
          "blockNumber": "0xf11620e",
          "transactionHash": "0x8d944d78dbac4fa68c446085f3b84db5ae7472c1c53b5a443884e7b5eecfed81",
          "transactionIndex": "0x1",
          "logIndex": "0x4",
          "removed": false
        },
        {
          "address": "0xc6962004f452be9203591991d15f6b388e09e8d0",
          "topics": [
            "0x7a53080ba414158be7ec69b987b5fb7d07dee101fe85488f0853ae16239d0bde",
            "0x000000000000000000000000e2567901559fc75903cfead2f147ba65940c06b7",
            "0xfffffffffffffffffffffffffffffffffffffffffffffffffffffffffff9564c",
            "0x00000000000000000000000000000000000000000000000000000000000098d0"
          ],
          "data": "0x000000000000000000000000e2567901559fc75903cfead2f147ba65940c06b7000000000000000000000000000000000000000000000000000000174876c12200000000000000000000000000000000000000000000000000075ae363e73988000000000000000000000000000000000000000000000000000000000049b42a",
          "blockHash": "0xd082e38eaea0505ad4b029e41ccbe63023186f2d1ba3b2ceea87fa6e77e21433",
          "blockNumber": "0xf11620e",
          "transactionHash": "0x8d944d78dbac4fa68c446085f3b84db5ae7472c1c53b5a443884e7b5eecfed81",
          "transactionIndex": "0x1",
          "logIndex": "0x5",
          "removed": false
        },
        {
          "address": "0xe2567901559fc75903cfead2f147ba65940c06b7",
          "topics": [
            "0xddf252ad1be2c89b69c2b068fc378daa952ba7f163c4a11628f55a4df523b3ef",
            "0x0000000000000000000000000000000000000000000000000000000000000000",
            "0x0000000000000000000000008d38cdf481b15fce5e38de304825e034f9ebe0e7"
          ],
          "data": "0x000000000000000000000000000000000000000000000000000000174876e800",
          "blockHash": "0xd082e38eaea0505ad4b029e41ccbe63023186f2d1ba3b2ceea87fa6e77e21433",
          "blockNumber": "0xf11620e",
          "transactionHash": "0x8d944d78dbac4fa68c446085f3b84db5ae7472c1c53b5a443884e7b5eecfed81",
          "transactionIndex": "0x1",
          "logIndex": "0x6",
          "removed": false
        },
        {
          "address": "0x82af49447d8a07e3bd95bd0d56f35241523fbab1",
          "topics": [
            "0xddf252ad1be2c89b69c2b068fc378daa952ba7f163c4a11628f55a4df523b3ef",
            "0x000000000000000000000000e2567901559fc75903cfead2f147ba65940c06b7",
            "0x0000000000000000000000008d38cdf481b15fce5e38de304825e034f9ebe0e7"
          ],
          "data": "0x000000000000000000000000000000000000000000000000000000000c472af3",
          "blockHash": "0xd082e38eaea0505ad4b029e41ccbe63023186f2d1ba3b2ceea87fa6e77e21433",
          "blockNumber": "0xf11620e",
          "transactionHash": "0x8d944d78dbac4fa68c446085f3b84db5ae7472c1c53b5a443884e7b5eecfed81",
          "transactionIndex": "0x1",
          "logIndex": "0x7",
          "removed": false
        },
        {
          "address": "0xe2567901559fc75903cfead2f147ba65940c06b7",
          "topics": [
            "0xdcbc1c05240f31ff3ad067ef1ee35ce4997762752e3a095284754544f4c709d7",
            "0x0000000000000000000000008d38cdf481b15fce5e38de304825e034f9ebe0e7",
            "0x0000000000000000000000008d38cdf481b15fce5e38de304825e034f9ebe0e7"
          ],
          "data": "0x000000000000000000000000000000000000000000000000000000174876c122000000000000000000000000000000000000000000000000000000174876e800",
          "blockHash": "0xd082e38eaea0505ad4b029e41ccbe63023186f2d1ba3b2ceea87fa6e77e21433",
          "blockNumber": "0xf11620e",
          "transactionHash": "0x8d944d78dbac4fa68c446085f3b84db5ae7472c1c53b5a443884e7b5eecfed81",
          "transactionIndex": "0x1",
          "logIndex": "0x8",
          "removed": false
        }
      ],
      "logsBloom": "0x00000040000000000010101000000000000000000002000040000000000000000000000000000000000100200000000000004001000020000000000000200000000000410000000000080009000000000040000008040000000000000000000000000000020000000000000400000800000000000004000000000010000000000000000008000000000000400000000000000000002000000000000000020000020000000000000000000000000000000000000000000000000000000000000008002002000000000000080000000000080000000008000000000000000020002810000800000000000000000000200000000000000000000000000000000000",
      "type": "0x2",
      "transactionHash": "0x8d944d78dbac4fa68c446085f3b84db5ae7472c1c53b5a443884e7b5eecfed81",
      "transactionIndex": "0x1",
      "blockHash": "0xd082e38eaea0505ad4b029e41ccbe63023186f2d1ba3b2ceea87fa6e77e21433",
      "blockNumber": "0xf11620e",
      "gasUsed": "0x7894c",
      "effectiveGasPrice": "0x989680",
      "from": "0x8d38cdf481b15fce5e38de304825e034f9ebe0e7",
      "to": "0xe2567901559fc75903cfead2f147ba65940c06b7",
      "contractAddress": null,
      "gasUsedForL1": "0xbe80",
      "l1BlockNumber": "0x13c66b6"
    }
  ],
  "libraries": [],
  "pending": [],
  "returns": {},
  "timestamp": 1726157880,
  "chain": 42161,
  "commit": "9735aa6"
}