{
  "transactions": [
    {
      "hash": "0x8143fff44cafdb62467178b558a4628ed7c352abd84a87555e0b0b3a99a2e711",
      "transactionType": "CALL",
      "contractName": null,
      "contractAddress": "0x6f550294c28d15878a0f30e68dbb4ab92bdcf4ec",
      "function": "deposit(uint256,address)",
      "arguments": [
        "5335494700000",
        "0x8D38cdf481b15fCe5e38de304825E034f9ebe0E7"
      ],
      "transaction": {
        "from": "0x8d38cdf481b15fce5e38de304825e034f9ebe0e7",
        "to": "0x6f550294c28d15878a0f30e68dbb4ab92bdcf4ec",
        "gas": "0x72677",
        "value": "0x0",
        "input": "0x6e553f65000000000000000000000000000000000000000000000000000004da44442be00000000000000000000000008d38cdf481b15fce5e38de304825e034f9ebe0e7",
        "nonce": "0x21",
        "chainId": "0xa4b1"
      },
      "additionalContracts": [],
      "isFixedGasLimit": false
    }
  ],
  "receipts": [
    {
      "status": "0x1",
      "cumulativeGasUsed": "0x4a96e",
      "logs": [
        {
          "address": "0x82af49447d8a07e3bd95bd0d56f35241523fbab1",
          "topics": [
            "0xddf252ad1be2c89b69c2b068fc378daa952ba7f163c4a11628f55a4df523b3ef",
            "0x0000000000000000000000008d38cdf481b15fce5e38de304825e034f9ebe0e7",
            "0x0000000000000000000000006f550294c28d15878a0f30e68dbb4ab92bdcf4ec"
          ],
          "data": "0x0000000000000000000000000000000000000000000000000007af6f1cbab39e",
          "blockHash": "0x12356dc299c5a6d59a3764bd122673fc0d4f360a596a1ea1da259a7e2482bc88",
          "blockNumber": "0xf11b16b",
          "transactionHash": "0x8143fff44cafdb62467178b558a4628ed7c352abd84a87555e0b0b3a99a2e711",
          "transactionIndex": "0x1",
          "logIndex": "0x0",
          "removed": false
        },
        {
          "address": "0x82af49447d8a07e3bd95bd0d56f35241523fbab1",
          "topics": [
            "0x8c5be1e5ebec7d5bd14f71427d1e84f3dd0314c0f7b2291e5b200ac8c7c3b925",
            "0x0000000000000000000000008d38cdf481b15fce5e38de304825e034f9ebe0e7",
            "0x0000000000000000000000006f550294c28d15878a0f30e68dbb4ab92bdcf4ec"
          ],
          "data": "0xffffffffffffffffffffffffffffffffffffffffffffffffffd2f5645311e0f6",
          "blockHash": "0x12356dc299c5a6d59a3764bd122673fc0d4f360a596a1ea1da259a7e2482bc88",
          "blockNumber": "0xf11b16b",
          "transactionHash": "0x8143fff44cafdb62467178b558a4628ed7c352abd84a87555e0b0b3a99a2e711",
          "transactionIndex": "0x1",
          "logIndex": "0x1",
          "removed": false
        },
        {
          "address": "0xaf88d065e77c8cc2239327c5edb3a432268e5831",
          "topics": [
            "0xddf252ad1be2c89b69c2b068fc378daa952ba7f163c4a11628f55a4df523b3ef",
            "0x0000000000000000000000008d38cdf481b15fce5e38de304825e034f9ebe0e7",
            "0x0000000000000000000000006f550294c28d15878a0f30e68dbb4ab92bdcf4ec"
          ],
          "data": "0x00000000000000000000000000000000000000000000000000000000004eb84d",
          "blockHash": "0x12356dc299c5a6d59a3764bd122673fc0d4f360a596a1ea1da259a7e2482bc88",
          "blockNumber": "0xf11b16b",
          "transactionHash": "0x8143fff44cafdb62467178b558a4628ed7c352abd84a87555e0b0b3a99a2e711",
          "transactionIndex": "0x1",
          "logIndex": "0x2",
          "removed": false
        },
        {
          "address": "0x82af49447d8a07e3bd95bd0d56f35241523fbab1",
          "topics": [
            "0xddf252ad1be2c89b69c2b068fc378daa952ba7f163c4a11628f55a4df523b3ef",
            "0x0000000000000000000000006f550294c28d15878a0f30e68dbb4ab92bdcf4ec",
            "0x000000000000000000000000c6962004f452be9203591991d15f6b388e09e8d0"
          ],
          "data": "0x0000000000000000000000000000000000000000000000000007af6f16e98c48",
          "blockHash": "0x12356dc299c5a6d59a3764bd122673fc0d4f360a596a1ea1da259a7e2482bc88",
          "blockNumber": "0xf11b16b",
          "transactionHash": "0x8143fff44cafdb62467178b558a4628ed7c352abd84a87555e0b0b3a99a2e711",
          "transactionIndex": "0x1",
          "logIndex": "0x3",
          "removed": false
        },
        {
          "address": "0xaf88d065e77c8cc2239327c5edb3a432268e5831",
          "topics": [
            "0xddf252ad1be2c89b69c2b068fc378daa952ba7f163c4a11628f55a4df523b3ef",
            "0x0000000000000000000000006f550294c28d15878a0f30e68dbb4ab92bdcf4ec",
            "0x000000000000000000000000c6962004f452be9203591991d15f6b388e09e8d0"
          ],
          "data": "0x00000000000000000000000000000000000000000000000000000000004eb84d",
          "blockHash": "0x12356dc299c5a6d59a3764bd122673fc0d4f360a596a1ea1da259a7e2482bc88",
          "blockNumber": "0xf11b16b",
          "transactionHash": "0x8143fff44cafdb62467178b558a4628ed7c352abd84a87555e0b0b3a99a2e711",
          "transactionIndex": "0x1",
          "logIndex": "0x4",
          "removed": false
        },
        {
          "address": "0xc6962004f452be9203591991d15f6b388e09e8d0",
          "topics": [
            "0x7a53080ba414158be7ec69b987b5fb7d07dee101fe85488f0853ae16239d0bde",
            "0x0000000000000000000000006f550294c28d15878a0f30e68dbb4ab92bdcf4ec",
            "0xfffffffffffffffffffffffffffffffffffffffffffffffffffffffffffcf630",
            "0xfffffffffffffffffffffffffffffffffffffffffffffffffffffffffffcf950"
          ],
          "data": "0x0000000000000000000000006f550294c28d15878a0f30e68dbb4ab92bdcf4ec000000000000000000000000000000000000000000000000000004da44407f9a0000000000000000000000000000000000000000000000000007af6f16e98c4800000000000000000000000000000000000000000000000000000000004eb84d",
          "blockHash": "0x12356dc299c5a6d59a3764bd122673fc0d4f360a596a1ea1da259a7e2482bc88",
          "blockNumber": "0xf11b16b",
          "transactionHash": "0x8143fff44cafdb62467178b558a4628ed7c352abd84a87555e0b0b3a99a2e711",
          "transactionIndex": "0x1",
          "logIndex": "0x5",
          "removed": false
        },
        {
          "address": "0x6f550294c28d15878a0f30e68dbb4ab92bdcf4ec",
          "topics": [
            "0xddf252ad1be2c89b69c2b068fc378daa952ba7f163c4a11628f55a4df523b3ef",
            "0x0000000000000000000000000000000000000000000000000000000000000000",
            "0x0000000000000000000000008d38cdf481b15fce5e38de304825e034f9ebe0e7"
          ],
          "data": "0x000000000000000000000000000000000000000000000000000004db53466ecb",
          "blockHash": "0x12356dc299c5a6d59a3764bd122673fc0d4f360a596a1ea1da259a7e2482bc88",
          "blockNumber": "0xf11b16b",
          "transactionHash": "0x8143fff44cafdb62467178b558a4628ed7c352abd84a87555e0b0b3a99a2e711",
          "transactionIndex": "0x1",
          "logIndex": "0x6",
          "removed": false
        },
        {
          "address": "0x82af49447d8a07e3bd95bd0d56f35241523fbab1",
          "topics": [
            "0xddf252ad1be2c89b69c2b068fc378daa952ba7f163c4a11628f55a4df523b3ef",
            "0x0000000000000000000000006f550294c28d15878a0f30e68dbb4ab92bdcf4ec",
            "0x0000000000000000000000008d38cdf481b15fce5e38de304825e034f9ebe0e7"
          ],
          "data": "0x0000000000000000000000000000000000000000000000000000000005d12756",
          "blockHash": "0x12356dc299c5a6d59a3764bd122673fc0d4f360a596a1ea1da259a7e2482bc88",
          "blockNumber": "0xf11b16b",
          "transactionHash": "0x8143fff44cafdb62467178b558a4628ed7c352abd84a87555e0b0b3a99a2e711",
          "transactionIndex": "0x1",
          "logIndex": "0x7",
          "removed": false
        },
        {
          "address": "0x6f550294c28d15878a0f30e68dbb4ab92bdcf4ec",
          "topics": [
            "0xdcbc1c05240f31ff3ad067ef1ee35ce4997762752e3a095284754544f4c709d7",
            "0x0000000000000000000000008d38cdf481b15fce5e38de304825e034f9ebe0e7",
            "0x0000000000000000000000008d38cdf481b15fce5e38de304825e034f9ebe0e7"
          ],
          "data": "0x000000000000000000000000000000000000000000000000000004da44407f9a000000000000000000000000000000000000000000000000000004db53466ecb",
          "blockHash": "0x12356dc299c5a6d59a3764bd122673fc0d4f360a596a1ea1da259a7e2482bc88",
          "blockNumber": "0xf11b16b",
          "transactionHash": "0x8143fff44cafdb62467178b558a4628ed7c352abd84a87555e0b0b3a99a2e711",
          "transactionIndex": "0x1",
          "logIndex": "0x8",
          "removed": false
        }
      ],
      "logsBloom": "0x00000000000000020010100000000000000000000000020000000000000000000000200000800000000000200000400000004001000020000000000000200000000000410000000008000089000000000040000008000000000000000000000000000000020000000000000400000800000000000004000000000010000000000000000009000000000000400000000000000000002000000000000000000000420004000000000000000000000000080000000000000000000000000000000000002002000000000000080000000000000000000008000000000000000022000010000800000000000000000000200000000000000000000000000000000000",
      "type": "0x2",
      "transactionHash": "0x8143fff44cafdb62467178b558a4628ed7c352abd84a87555e0b0b3a99a2e711",
      "transactionIndex": "0x1",
      "blockHash": "0x12356dc299c5a6d59a3764bd122673fc0d4f360a596a1ea1da259a7e2482bc88",
      "blockNumber": "0xf11b16b",
      "gasUsed": "0x4a96e",
      "effectiveGasPrice": "0x989680",
      "from": "0x8d38cdf481b15fce5e38de304825e034f9ebe0e7",
      "to": "0x6f550294c28d15878a0f30e68dbb4ab92bdcf4ec",
      "contractAddress": null,
      "gasUsedForL1": "0x9f5b",
      "l1BlockNumber": "0x13c685e"
    }
  ],
  "libraries": [],
  "pending": [],
  "returns": {},
  "timestamp": 1726162982,
  "chain": 42161,
  "commit": "9735aa6"
}