{
  "transactions": [
    {
      "hash": "0xd73ab506320db4ec7a843103b601d39aa4caeacde27884ad304218b56a2005ed",
      "transactionType": "CALL",
      "contractName": null,
      "contractAddress": "0x56a3496ac7c361ef0f7ecaa016dc842c146208f1",
      "function": "deposit(uint256,address)",
      "arguments": [
        "30315361134688",
        "0x8D38cdf481b15fCe5e38de304825E034f9ebe0E7"
      ],
      "transaction": {
        "from": "0x8d38cdf481b15fce5e38de304825e034f9ebe0e7",
        "to": "0x56a3496ac7c361ef0f7ecaa016dc842c146208f1",
        "gas": "0x6fa2c",
        "value": "0x0",
        "input": "0x6e553f6500000000000000000000000000000000000000000000000000001b925854e8600000000000000000000000008d38cdf481b15fce5e38de304825e034f9ebe0e7",
        "nonce": "0x36",
        "chainId": "0xa4b1"
      },
      "additionalContracts": [],
      "isFixedGasLimit": false
    }
  ],
  "receipts": [
    {
      "status": "0x1",
      "cumulativeGasUsed": "0x49247",
      "logs": [
        {
          "address": "0x82af49447d8a07e3bd95bd0d56f35241523fbab1",
          "topics": [
            "0xddf252ad1be2c89b69c2b068fc378daa952ba7f163c4a11628f55a4df523b3ef",
            "0x0000000000000000000000008d38cdf481b15fce5e38de304825e034f9ebe0e7",
            "0x00000000000000000000000056a3496ac7c361ef0f7ecaa016dc842c146208f1"
          ],
          "data": "0x000000000000000000000000000000000000000000000000001646464d7db4eb",
          "blockHash": "0x49cf18efe4ad75cd9956dd872511e875554868400067bcc52d4cf8b73c07006b",
          "blockNumber": "0xf11fda0",
          "transactionHash": "0xd73ab506320db4ec7a843103b601d39aa4caeacde27884ad304218b56a2005ed",
          "transactionIndex": "0x1",
          "logIndex": "0x0",
          "removed": false
        },
        {
          "address": "0x82af49447d8a07e3bd95bd0d56f35241523fbab1",
          "topics": [
            "0x8c5be1e5ebec7d5bd14f71427d1e84f3dd0314c0f7b2291e5b200ac8c7c3b925",
            "0x0000000000000000000000008d38cdf481b15fce5e38de304825e034f9ebe0e7",
            "0x00000000000000000000000056a3496ac7c361ef0f7ecaa016dc842c146208f1"
          ],
          "data": "0xffffffffffffffffffffffffffffffffffffffffffffffffffe21d343886a06b",
          "blockHash": "0x49cf18efe4ad75cd9956dd872511e875554868400067bcc52d4cf8b73c07006b",
          "blockNumber": "0xf11fda0",
          "transactionHash": "0xd73ab506320db4ec7a843103b601d39aa4caeacde27884ad304218b56a2005ed",
          "transactionIndex": "0x1",
          "logIndex": "0x1",
          "removed": false
        },
        {
          "address": "0xaf88d065e77c8cc2239327c5edb3a432268e5831",
          "topics": [
            "0xddf252ad1be2c89b69c2b068fc378daa952ba7f163c4a11628f55a4df523b3ef",
            "0x0000000000000000000000008d38cdf481b15fce5e38de304825e034f9ebe0e7",
            "0x00000000000000000000000056a3496ac7c361ef0f7ecaa016dc842c146208f1"
          ],
          "data": "0x0000000000000000000000000000000000000000000000000000000000dd6811",
          "blockHash": "0x49cf18efe4ad75cd9956dd872511e875554868400067bcc52d4cf8b73c07006b",
          "blockNumber": "0xf11fda0",
          "transactionHash": "0xd73ab506320db4ec7a843103b601d39aa4caeacde27884ad304218b56a2005ed",
          "transactionIndex": "0x1",
          "logIndex": "0x2",
          "removed": false
        },
        {
          "address": "0x82af49447d8a07e3bd95bd0d56f35241523fbab1",
          "topics": [
            "0xddf252ad1be2c89b69c2b068fc378daa952ba7f163c4a11628f55a4df523b3ef",
            "0x00000000000000000000000056a3496ac7c361ef0f7ecaa016dc842c146208f1",
            "0x000000000000000000000000c6962004f452be9203591991d15f6b388e09e8d0"
          ],
          "data": "0x00000000000000000000000000000000000000000000000000164646369db99f",
          "blockHash": "0x49cf18efe4ad75cd9956dd872511e875554868400067bcc52d4cf8b73c07006b",
          "blockNumber": "0xf11fda0",
          "transactionHash": "0xd73ab506320db4ec7a843103b601d39aa4caeacde27884ad304218b56a2005ed",
          "transactionIndex": "0x1",
          "logIndex": "0x3",
          "removed": false
        },
        {
          "address": "0xaf88d065e77c8cc2239327c5edb3a432268e5831",
          "topics": [
            "0xddf252ad1be2c89b69c2b068fc378daa952ba7f163c4a11628f55a4df523b3ef",
            "0x00000000000000000000000056a3496ac7c361ef0f7ecaa016dc842c146208f1",
            "0x000000000000000000000000c6962004f452be9203591991d15f6b388e09e8d0"
          ],
          "data": "0x0000000000000000000000000000000000000000000000000000000000dd6811",
          "blockHash": "0x49cf18efe4ad75cd9956dd872511e875554868400067bcc52d4cf8b73c07006b",
          "blockNumber": "0xf11fda0",
          "transactionHash": "0xd73ab506320db4ec7a843103b601d39aa4caeacde27884ad304218b56a2005ed",
          "transactionIndex": "0x1",
          "logIndex": "0x4",
          "removed": false
        },
        {
          "address": "0xc6962004f452be9203591991d15f6b388e09e8d0",
          "topics": [
            "0x7a53080ba414158be7ec69b987b5fb7d07dee101fe85488f0853ae16239d0bde",
            "0x00000000000000000000000056a3496ac7c361ef0f7ecaa016dc842c146208f1",
            "0xfffffffffffffffffffffffffffffffffffffffffffffffffffffffffffcf70c",
            "0xfffffffffffffffffffffffffffffffffffffffffffffffffffffffffffcf89c"
          ],
          "data": "0x00000000000000000000000056a3496ac7c361ef0f7ecaa016dc842c146208f100000000000000000000000000000000000000000000000000001b92583897c500000000000000000000000000000000000000000000000000164646369db99f0000000000000000000000000000000000000000000000000000000000dd6811",
          "blockHash": "0x49cf18efe4ad75cd9956dd872511e875554868400067bcc52d4cf8b73c07006b",
          "blockNumber": "0xf11fda0",
          "transactionHash": "0xd73ab506320db4ec7a843103b601d39aa4caeacde27884ad304218b56a2005ed",
          "transactionIndex": "0x1",
          "logIndex": "0x5",
          "removed": false
        },
        {
          "address": "0x56a3496ac7c361ef0f7ecaa016dc842c146208f1",
          "topics": [
            "0xddf252ad1be2c89b69c2b068fc378daa952ba7f163c4a11628f55a4df523b3ef",
            "0x0000000000000000000000000000000000000000000000000000000000000000",
            "0x0000000000000000000000008d38cdf481b15fce5e38de304825e034f9ebe0e7"
          ],
          "data": "0x00000000000000000000000000000000000000000000000000001b9258af933f",
          "blockHash": "0x49cf18efe4ad75cd9956dd872511e875554868400067bcc52d4cf8b73c07006b",
          "blockNumber": "0xf11fda0",
          "transactionHash": "0xd73ab506320db4ec7a843103b601d39aa4caeacde27884ad304218b56a2005ed",
          "transactionIndex": "0x1",
          "logIndex": "0x6",
          "removed": false
        },
        {
          "address": "0x82af49447d8a07e3bd95bd0d56f35241523fbab1",
          "topics": [
            "0xddf252ad1be2c89b69c2b068fc378daa952ba7f163c4a11628f55a4df523b3ef",
            "0x00000000000000000000000056a3496ac7c361ef0f7ecaa016dc842c146208f1",
            "0x0000000000000000000000008d38cdf481b15fce5e38de304825e034f9ebe0e7"
          ],
          "data": "0x0000000000000000000000000000000000000000000000000000000016dffb4c",
          "blockHash": "0x49cf18efe4ad75cd9956dd872511e875554868400067bcc52d4cf8b73c07006b",
          "blockNumber": "0xf11fda0",
          "transactionHash": "0xd73ab506320db4ec7a843103b601d39aa4caeacde27884ad304218b56a2005ed",
          "transactionIndex": "0x1",
          "logIndex": "0x7",
          "removed": false
        },
        {
          "address": "0x56a3496ac7c361ef0f7ecaa016dc842c146208f1",
          "topics": [
            "0xdcbc1c05240f31ff3ad067ef1ee35ce4997762752e3a095284754544f4c709d7",
            "0x0000000000000000000000008d38cdf481b15fce5e38de304825e034f9ebe0e7",
            "0x0000000000000000000000008d38cdf481b15fce5e38de304825e034f9ebe0e7"
          ],
          "data": "0x00000000000000000000000000000000000000000000000000001b92583897c500000000000000000000000000000000000000000000000000001b9258af933f",
          "blockHash": "0x49cf18efe4ad75cd9956dd872511e875554868400067bcc52d4cf8b73c07006b",
          "blockNumber": "0xf11fda0",
          "transactionHash": "0xd73ab506320db4ec7a843103b601d39aa4caeacde27884ad304218b56a2005ed",
          "transactionIndex": "0x1",
          "logIndex": "0x8",
          "removed": false
        }
      ],
      "logsBloom": "0x00000000000000000010100000000000000004000000000000000000000200000000000000000000000000200000000000004001000020000000000008200000000000410000000000000009000000000040080008000000000000001000000000000000020000000000000400000800000000000004000000000010000000000000000008000000000001400000000000000000002000000000000000000000020000000000000000000001000000000100000000000000000000000000000000002002000000000000080000000000000000008008000000000000000020000010000800000000002000000000200000000000000000000000000000000200",
      "type": "0x2",
      "transactionHash": "0xd73ab506320db4ec7a843103b601d39aa4caeacde27884ad304218b56a2005ed",
      "transactionIndex": "0x1",
      "blockHash": "0x49cf18efe4ad75cd9956dd872511e875554868400067bcc52d4cf8b73c07006b",
      "blockNumber": "0xf11fda0",
      "gasUsed": "0x49247",
      "effectiveGasPrice": "0x989680",
      "from": "0x8d38cdf481b15fce5e38de304825e034f9ebe0e7",
      "to": "0x56a3496ac7c361ef0f7ecaa016dc842c146208f1",
      "contractAddress": null,
      "gasUsedForL1": "0x8757",
      "l1BlockNumber": "0x13c69f4"
    }
  ],
  "libraries": [],
  "pending": [],
  "returns": {},
  "timestamp": 1726167885,
  "chain": 42161,
  "commit": "6c5970c"
}