{
  "transactions": [
    {
      "hash": "0xd005329c0ed2761046f5576c2259ca0c18a77a24e38eec70843fa9abebb7af71",
      "transactionType": "CALL",
      "contractName": null,
      "contractAddress": "0xbb648be67d909a70e81f1fb608ce673aa812f071",
      "function": "deposit(uint256,address)",
      "arguments": [
        "7335494700000",
        "0x8D38cdf481b15fCe5e38de304825E034f9ebe0E7"
      ],
      "transaction": {
        "from": "0x8d38cdf481b15fce5e38de304825e034f9ebe0e7",
        "to": "0xbb648be67d909a70e81f1fb608ce673aa812f071",
        "gas": "0x7695d",
        "value": "0x0",
        "input": "0x6e553f65000000000000000000000000000000000000000000000000000006abed8e4be00000000000000000000000008d38cdf481b15fce5e38de304825e034f9ebe0e7",
        "nonce": "0x28",
        "chainId": "0xa4b1"
      },
      "additionalContracts": [],
      "isFixedGasLimit": false
    }
  ],
  "receipts": [
    {
      "status": "0x1",
      "cumulativeGasUsed": "0xb48fc",
      "logs": [
        {
          "address": "0x82af49447d8a07e3bd95bd0d56f35241523fbab1",
          "topics": [
            "0xddf252ad1be2c89b69c2b068fc378daa952ba7f163c4a11628f55a4df523b3ef",
            "0x0000000000000000000000008d38cdf481b15fce5e38de304825e034f9ebe0e7",
            "0x000000000000000000000000bb648be67d909a70e81f1fb608ce673aa812f071"
          ],
          "data": "0x000000000000000000000000000000000000000000000000000aa5b53f49b001",
          "blockHash": "0xb87b84223e41be93667ba22af301e726f5d00eee3efb7b9707f592c22a2391ba",
          "blockNumber": "0xf11b80c",
          "transactionHash": "0xd005329c0ed2761046f5576c2259ca0c18a77a24e38eec70843fa9abebb7af71",
          "transactionIndex": "0x3",
          "logIndex": "0x4",
          "removed": false
        },
        {
          "address": "0x82af49447d8a07e3bd95bd0d56f35241523fbab1",
          "topics": [
            "0x8c5be1e5ebec7d5bd14f71427d1e84f3dd0314c0f7b2291e5b200ac8c7c3b925",
            "0x0000000000000000000000008d38cdf481b15fce5e38de304825e034f9ebe0e7",
            "0x000000000000000000000000bb648be67d909a70e81f1fb608ce673aa812f071"
          ],
          "data": "0xffffffffffffffffffffffffffffffffffffffffffffffffffcfe2c8a582d3b2",
          "blockHash": "0xb87b84223e41be93667ba22af301e726f5d00eee3efb7b9707f592c22a2391ba",
          "blockNumber": "0xf11b80c",
          "transactionHash": "0xd005329c0ed2761046f5576c2259ca0c18a77a24e38eec70843fa9abebb7af71",
          "transactionIndex": "0x3",
          "logIndex": "0x5",
          "removed": false
        },
        {
          "address": "0xaf88d065e77c8cc2239327c5edb3a432268e5831",
          "topics": [
            "0xddf252ad1be2c89b69c2b068fc378daa952ba7f163c4a11628f55a4df523b3ef",
            "0x0000000000000000000000008d38cdf481b15fce5e38de304825e034f9ebe0e7",
            "0x000000000000000000000000bb648be67d909a70e81f1fb608ce673aa812f071"
          ],
          "data": "0x00000000000000000000000000000000000000000000000000000000006b68fa",
          "blockHash": "0xb87b84223e41be93667ba22af301e726f5d00eee3efb7b9707f592c22a2391ba",
          "blockNumber": "0xf11b80c",
          "transactionHash": "0xd005329c0ed2761046f5576c2259ca0c18a77a24e38eec70843fa9abebb7af71",
          "transactionIndex": "0x3",
          "logIndex": "0x6",
          "removed": false
        },
        {
          "address": "0x82af49447d8a07e3bd95bd0d56f35241523fbab1",
          "topics": [
            "0xddf252ad1be2c89b69c2b068fc378daa952ba7f163c4a11628f55a4df523b3ef",
            "0x000000000000000000000000bb648be67d909a70e81f1fb608ce673aa812f071",
            "0x000000000000000000000000c6962004f452be9203591991d15f6b388e09e8d0"
          ],
          "data": "0x000000000000000000000000000000000000000000000000000aa5b52bf1e31d",
          "blockHash": "0xb87b84223e41be93667ba22af301e726f5d00eee3efb7b9707f592c22a2391ba",
          "blockNumber": "0xf11b80c",
          "transactionHash": "0xd005329c0ed2761046f5576c2259ca0c18a77a24e38eec70843fa9abebb7af71",
          "transactionIndex": "0x3",
          "logIndex": "0x7",
          "removed": false
        },
        {
          "address": "0xaf88d065e77c8cc2239327c5edb3a432268e5831",
          "topics": [
            "0xddf252ad1be2c89b69c2b068fc378daa952ba7f163c4a11628f55a4df523b3ef",
            "0x000000000000000000000000bb648be67d909a70e81f1fb608ce673aa812f071",
            "0x000000000000000000000000c6962004f452be9203591991d15f6b388e09e8d0"
          ],
          "data": "0x00000000000000000000000000000000000000000000000000000000006b68fa",
          "blockHash": "0xb87b84223e41be93667ba22af301e726f5d00eee3efb7b9707f592c22a2391ba",
          "blockNumber": "0xf11b80c",
          "transactionHash": "0xd005329c0ed2761046f5576c2259ca0c18a77a24e38eec70843fa9abebb7af71",
          "transactionIndex": "0x3",
          "logIndex": "0x8",
          "removed": false
        },
        {
          "address": "0xc6962004f452be9203591991d15f6b388e09e8d0",
          "topics": [
            "0x7a53080ba414158be7ec69b987b5fb7d07dee101fe85488f0853ae16239d0bde",
            "0x000000000000000000000000bb648be67d909a70e81f1fb608ce673aa812f071",
            "0xfffffffffffffffffffffffffffffffffffffffffffffffffffffffffffcf630",
            "0xfffffffffffffffffffffffffffffffffffffffffffffffffffffffffffcf950"
          ],
          "data": "0x000000000000000000000000bb648be67d909a70e81f1fb608ce673aa812f071000000000000000000000000000000000000000000000000000006abed822d14000000000000000000000000000000000000000000000000000aa5b52bf1e31d00000000000000000000000000000000000000000000000000000000006b68fa",
          "blockHash": "0xb87b84223e41be93667ba22af301e726f5d00eee3efb7b9707f592c22a2391ba",
          "blockNumber": "0xf11b80c",
          "transactionHash": "0xd005329c0ed2761046f5576c2259ca0c18a77a24e38eec70843fa9abebb7af71",
          "transactionIndex": "0x3",
          "logIndex": "0x9",
          "removed": false
        },
        {
          "address": "0xbb648be67d909a70e81f1fb608ce673aa812f071",
          "topics": [
            "0xddf252ad1be2c89b69c2b068fc378daa952ba7f163c4a11628f55a4df523b3ef",
            "0x0000000000000000000000000000000000000000000000000000000000000000",
            "0x0000000000000000000000008d38cdf481b15fce5e38de304825e034f9ebe0e7"
          ],
          "data": "0x000000000000000000000000000000000000000000000000000006abed91d423",
          "blockHash": "0xb87b84223e41be93667ba22af301e726f5d00eee3efb7b9707f592c22a2391ba",
          "blockNumber": "0xf11b80c",
          "transactionHash": "0xd005329c0ed2761046f5576c2259ca0c18a77a24e38eec70843fa9abebb7af71",
          "transactionIndex": "0x3",
          "logIndex": "0xa",
          "removed": false
        },
        {
          "address": "0x82af49447d8a07e3bd95bd0d56f35241523fbab1",
          "topics": [
            "0xddf252ad1be2c89b69c2b068fc378daa952ba7f163c4a11628f55a4df523b3ef",
            "0x000000000000000000000000bb648be67d909a70e81f1fb608ce673aa812f071",
            "0x0000000000000000000000008d38cdf481b15fce5e38de304825e034f9ebe0e7"
          ],
          "data": "0x000000000000000000000000000000000000000000000000000000001357cce4",
          "blockHash": "0xb87b84223e41be93667ba22af301e726f5d00eee3efb7b9707f592c22a2391ba",
          "blockNumber": "0xf11b80c",
          "transactionHash": "0xd005329c0ed2761046f5576c2259ca0c18a77a24e38eec70843fa9abebb7af71",
          "transactionIndex": "0x3",
          "logIndex": "0xb",
          "removed": false
        },
        {
          "address": "0xbb648be67d909a70e81f1fb608ce673aa812f071",
          "topics": [
            "0xdcbc1c05240f31ff3ad067ef1ee35ce4997762752e3a095284754544f4c709d7",
            "0x0000000000000000000000008d38cdf481b15fce5e38de304825e034f9ebe0e7",
            "0x0000000000000000000000008d38cdf481b15fce5e38de304825e034f9ebe0e7"
          ],
          "data": "0x000000000000000000000000000000000000000000000000000006abed822d14000000000000000000000000000000000000000000000000000006abed91d423",
          "blockHash": "0xb87b84223e41be93667ba22af301e726f5d00eee3efb7b9707f592c22a2391ba",
          "blockNumber": "0xf11b80c",
          "transactionHash": "0xd005329c0ed2761046f5576c2259ca0c18a77a24e38eec70843fa9abebb7af71",
          "transactionIndex": "0x3",
          "logIndex": "0xc",
          "removed": false
        }
      ],
      "logsBloom": "0x00000000000000120010100000000000000000000000000000000400000000000000000000000000000000200000400000004001000020000000000000200000000800410000000008000009000000000040000008000000000000000000000000000000020000000000000400000800000000000004000000000010000000000000000008000000000000400000000000000000002000000000000000000000420004000000000000000000000000000000000000000000000000000000000000012002000000000000080000000000000000000008000000000000000022000010000800000000000000000400200000000000000000000000000000000000",
      "type": "0x2",
      "transactionHash": "0xd005329c0ed2761046f5576c2259ca0c18a77a24e38eec70843fa9abebb7af71",
      "transactionIndex": "0x3",
      "blockHash": "0xb87b84223e41be93667ba22af301e726f5d00eee3efb7b9707f592c22a2391ba",
      "blockNumber": "0xf11b80c",
      "gasUsed": "0x4a64c",
      "effectiveGasPrice": "0x989680",
      "from": "0x8d38cdf481b15fce5e38de304825e034f9ebe0e7",
      "to": "0xbb648be67d909a70e81f1fb608ce673aa812f071",
      "contractAddress": null,
      "gasUsedForL1": "0xcb3e",
      "l1BlockNumber": "0x13c6881"
    }
  ],
  "libraries": [],
  "pending": [],
  "returns": {},
  "timestamp": 1726163407,
  "chain": 42161,
  "commit": "9735aa6"
}